:020000040001F9
:10800000083F002029C0010043C0010045C0010015
:108010000000000000000000000000000000000060
:1080200000000000000000000000000047C0010048
:10803000000000000000000049C001004BC001002A
:108040004DC001004DC00100AFE401004DC0010072
:108050004DC0010000000000D1DE01004DC0010054
:108060004DC001004DC00100136402004DC001006D
:108070004DC001004DC001004DC001004DC00100C8
:108080004DC00100670002004DC001004DC001005D
:10809000890002004DC00100790402004DC00100BA
:1080A0004DC001004DC001000000000000000000B4
:1080B00000000000000000000000000000000000C0
:1080C0000348854616F05EFB0048004777AF010085
:1080D000083F0020401E00BF00BF00BF00BF00BF20
:1080E00000BF00BF00BF00BF00BF00BF00BFF1D195
:1080F00070470000401E00BF00BF00BF00BF00BFB0
:1081000000BF00BF00BF00BF00BF00BF00BFF1D174
:1081100070470000401E00BF00BF00BF00BF00BF8F
:1081200000BF00BF00BF00BF00BF00BF00BFF1D154
:1081300070470000401E00BF00BF00BF00BF00BF6F
:1081400000BF00BF00BF00BF00BF00BF00BFF1D134
:1081500070470000401E00BF00BF00BF00BF00BF4F
:1081600000BF00BF00BF00BF00BF00BF00BFF1D114
:1081700070470000401E00BF00BF00BF00BF00BF2F
:1081800000BF00BF00BF00BF00BF00BF00BFF1D1F4
:1081900070470000401E00BF00BF00BF00BF00BF0F
:1081A00000BF00BF00BF00BF00BF00BF00BFF1D1D4
:1081B00070470000401E00BF00BF00BF00BF00BFEF
:1081C00000BF00BF00BF00BF00BF00BF00BFF1D1B4
:1081D00070470000401E00BF00BF00BF00BF00BFCF
:1081E00000BF00BF00BF00BF00BF00BF00BFF1D194
:1081F00070470000F8B5002216461746009273003B
:1082000013438C0023433C022343009C2404234358
:108210000524240707252D0264198500635100BF3A
:10822000F8BD70B504460D462A462146FB4807F0C6
:10823000AFFB70BD3EB500BF68460078010909017B
:10824000491C009168460078F02188431030009066
:1082500000BFF34816F06DFA85B22A46F049684629
:108260007CDF044600BF2546002D06D000BF00225B
:108270001146284607F08CFB00BF00BF002001908C
:1082800002900C21684681801021C180002101816B
:10829000C821418101A87ADF044600BF2546002D90
:1082A00006D000BF00221146284607F071FB00BF30
:1082B00000BF3EBDF8B505460E460120D9490870FD
:1082C00032462946D84805F034FA0446082C0BD02B
:1082D00000BF2746002F06D000BF002211463846B7
:1082E00007F056FB00BF00BF1E2005F053FA012027
:1082F000F8BD70B506460C461546CC4800780028F7
:1083000003D1E9B2204610F098FD70BD38B50020C9
:108310000090C74800906946C34805F08AF90446B2
:1083200000BF2546002D06D000BF0022114628467A
:1083300007F02EFB00BF00BF38BD70B5054628789A
:10834000002810D13B21BB48008876DF044600BFDF
:108350002646002E06D000BF00221146304607F008
:1083600017FB00BF00BF70BD70B53B21B14800884E
:1083700076DF044600BF2546002D06D000BF002250
:108380001146284607F004FB00BF00BF70BD10B5C2
:10839000044600BF00221146204607F0F9FA00BF4C
:1083A00010BD30B587B01C21684616F0B7F9002023
:1083B00000900520C00301900F20000402900721C7
:1083C000684601730021C18101749B4805909B4858
:1083D0000690684604F0A7FE044600BF2546002D1F
:1083E00006D000BF00221146284607F0D1FA00BF90
:1083F00000BF07B030BD70B5002003F07BFC044621
:1084000000BF2546002D06D000BF00221146284699
:1084100007F0BEFA00BF00BF03F09AFD044600BF9C
:108420002546002D06D000BF00221146284607F041
:10843000AFFA00BF00BF3CDF044600BF2546002D59
:1084400006D000BF00221146284607F0A1FA00BF5F
:1084500000BF70BD70B50546002D12D0032D13D19D
:10846000022003F047FC044600BF2646002E06D03B
:1084700000BF00221146304607F08AFA00BF00BF55
:1084800003E0FFF7B8FF00E000BF00BF70BD70B5AC
:1084900005462888112828D004DC012869D0102836
:1084A0006BD104E013283CD0522866D14DE0072060
:1084B00003F020FC044600BF2646002E06D000BF75
:1084C00000221146304607F063FA00BF00BFA888BB
:1084D0005849088001205A490870002059490870FD
:1084E000594908805949087048E0002003F002FC0F
:1084F000044600BF2646002E06D000BF00221146CB
:10850000304607F045FA00BF00BF0020C04349498C
:10851000088000204A4908704B4908804B49087080
:108520002CE000231A468521424800887FDF04465C
:1085300000BF2646002E06D000BF0022114630465E
:1085400007F026FA00BF00BF18E000231A461946BC
:1085500038480088A9DF044600BF2646002E06D012
:1085600000BF00221146304607F012FA00BF00BFDC
:1085700004E000202B49087000BF00BF00BF70BDA1
:1085800010B50446204604F0A2FE2146264805F018
:108590002DF82046FFF77BFF204604F050FC2046D4
:1085A00003F0E5FC10BD7CB500BF0023482228493C
:1085B0000E2007F019FF054600BF2E46002E06D0FC
:1085C00000BF00221146304607F0E2F900BF00BFAD
:1085D00000BF00200090019069460870684660DF87
:1085E000044600BF2546002D06D000BF00221146DC
:1085F000284607F0CDF900BF00BF164807F02AFF54
:10860000044600BF2546002D06D000BF00221146BB
:10861000284607F0BDF900BF00BF7CBDEFBEADDE50
:1086200000200020282000209C2200200022002082
:10863000F38201001C2000203B8301008F83010096
:10864000292000202A200020FE210020FC210020DB
:10865000682B00208185010010B5FE4800780028B5
:1086600032D108F093F912F0D7FF13F01DF900246E
:1086700014F0F9F9092003F0D9FAFF20F53005F0DC
:1086800089F813F031FB0446F348046014F0F2F962
:10869000092003F0D0FA082003F0CDFA642005F099
:1086A00079F813F021FB0446EC48046013F0FCF861
:1086B00008F070F9E8480068002805D0E74800682D
:1086C000002801D0012010BD0020FCE710B5E148D2
:1086D000007800281BD108F059F912F09DFF13F023
:1086E000E3F8092003F0A7FA082003F0A4FA6420B5
:1086F00005F050F813F0F8FA0446D848046013F077
:10870000D3F808F047F9002C01D0204610BDD3481B
:108710000068FBE7704710B5D148007800287DDD80
:10872000D048007804287CD1CF480078012878D13F
:10873000CE480078012874D1C94800780007000F9E
:10874000012805D0C64800780007000F02282AD16A
:1087500008F01CF9C6480268C6480168C248401CB7
:108760000BF0C8FAC449087007F07EFF08F012F950
:10877000C1480078002809D009200DF0F0FF02223E
:10878000BD480178012010F024FC08E00A200DF01B
:10879000E6FF0022B8480178022010F01AFC002001
:1087A000AF49087035E0AE4800780007000F032895
:1087B00005D0AB4800780007000F042829D108F045
:1087C000E5F8AB480268AB480168A748401C0BF0CD
:1087D000BCFCA949087007F047FF08F0DBF8A64881
:1087E0000078002809D009200DF0B9FF0222A24824
:1087F0000178012010F0EDFB08E00A200DF0AFFF3A
:1088000000229D480178022010F0E3FB00209449EB
:1088100008709A480078401C984900E001E0087010
:108820009FE08F48007800287FDD8E48007804287C
:108830007BD18D480078022877D18C4800780128B8
:1088400073D18E480078401C8C49087084480078A9
:108850000007000F012805D0814800780007000FAD
:1088600002282AD108F092F88148026881480168FC
:108870007D48401C0BF08EFE7F49087007F0F4FE27
:1088800008F088F87C480078002809D009200DF00D
:1088900066FF032278480178012010F09AFB08E077
:1088A0000A200DF05CFF002273480178022010F0CE
:1088B00090FB00206A49087053E06948007800077F
:1088C000000F032805D0664800780007000F042831
:1088D00047D108F05BF8664802686648016862485C
:1088E000401C0CF08EF86449087007F0BDFE08F0DB
:1088F00051F86148007800280AD009200DF02FFFB8
:1089000004225D480178012010F063FB09E00CE0CF
:108910000A200DF024FF002257480178022010F0B1
:1089200058FB00204E4908701BE054480078052889
:1089300012DD002051490870494908704B48007801
:1089400001280ED14948007801280AD10022114699
:10895000022010F03EFB04E048480078401C4749E4
:10896000087010BD30B5A7B0382119A815F0D6FE93
:10897000022118A80171002181710621C1713821DD
:108980000BA815F0CBFE0121684681873C49109168
:10899000242102A815F0C2FE012168460175642059
:1089A00006904B200001039000200790354B02AA4F
:1089B0000BA9009019A804F001F8044600BF254651
:1089C000002D06D000BF00221146284606F0E0FF29
:1089D00000BF00BF27B030BD70B52B48007800281D
:1089E00074D11C480078002870D1002227492848FB
:1089F000006807F0CAFB044600BF2546002D06D0DC
:108A000000BF00221146284606F0C2FF00BF00BF8B
:108A10001048007800281AD1092003F007F914F053
:108A200098F807F0B3FF12F03FFF12F0F5FD0A4986
:108A3000098888B213F0BAF908200A4908707D2025
:108A4000C00004F0A7FE12F0E7FD07F0A3FF1148F5
:108A5000007821E0C42100202C20002030200020BC
:108A60001422002039200020F0340020292000208A
:108A70001C220020182200205F20002060200020FF
:108A80001E200020558401006420002033030000D4
:108A900024E80200DA210020002817D15020FE49E6
:108AA000887074DFFFF7C6FBFFF75CFF032004F05C
:108AB00023F8044600BF2546002D06D000BF002243
:108AC0001146284606F064FF00BF00BF0020F349AE
:108AD000088070BD7CB5F2480078002801D1EF49CC
:108AE0000880EF480078002865D103F0A9F8002835
:108AF00061D1EC48007800285DD1EB48007800286F
:108B000059D1EA480078002855D1E9480078002872
:108B100051D10022E749E848006807F036FB0446D7
:108B200000BF2546002D06D000BF00221146284672
:108B300006F02EFF00BF00BFDA48007800281ED1E3
:108B4000092003F073F8092003F070F814F001F81D
:108B500007F01CFF12F0A8FE12F05EFDD74909884D
:108B600088B213F023F90820D5490870642004F076
:108B700011FE12F051FD13F076FF07F00BFFD14804
:108B8000007800281AD15020C349887074DFFFF79D
:108B900051FBFFF7E7FE032003F0AEFF044600BFE2
:108BA0002546002D06D000BF00221146284606F0BB
:108BB000EFFE00BF02E0002003F042F8062003F0C1
:108BC0003FF800283ED1B848007800283AD1FFF796
:108BD00003FF092003F02FF8082003F027F81420E2
:108BE00004F0D8FD082003F026F8092003F023F84C
:108BF000AB480078002802D0092003F017F80620BF
:108C000003F01EF800281DD1AF480078012819DABA
:108C1000A7480078002815D10120AB490870002230
:108C2000AA49AB48006807F0B0FA044600BF2546E1
:108C3000002D06D000BF00221146284606F0A8FEEF
:108C400000BF00BF102002F0FBFF00287CD0954839
:108C50000078002878D1944800780028FAD107F0ED
:108C600095FE132011F05CFE9A49087008460078C2
:108C700000286AD1102002F0E3FF002865D0904858
:108C800000780828F5D113F0CBF8FF20924908703E
:108C90009249087013F0B2FA002807D013F0E9FCEB
:108CA000002803D013F0B1FB00287DD1002004E0A0
:108CB00000218B4A1154411CC8B28A490978884264
:108CC000F6DB86480078012803D1042084494871E6
:108CD00006E082480078022802D1082080494871C5
:108CE000002007E07D4A411C525C7D4B811D5A5497
:108CF000411CC8B27A4949798142F3DC04207049A9
:108D000008707648007801287ED108F01EFA11F02C
:108D100093F9012838D174480078012834D109200A
:108D200002F084FF002004E0FF216B4A1154411C33
:108D3000C8B28028F8D30DF0B8FA6C480078012842
:108D400004D0022811D109E0DDE3D1E36848FF2116
:108D50000431026800200AF01AF80DE06448654901
:108D6000026800200AF013F806E061480321026857
:108D700000200AF00CF800BF00BF07F00BFEFFF761
:108D80002BFE07F003FE8CE35448401C0CF0A5FBBF
:108D90005949086008460068002879D0574800788B
:108DA000002875D1084600E08BE300680121090620
:108DB0000840002805D150480068490008400028B4
:108DC000EBD0404800780128EBD108F081F8464804
:108DD000007801285DD14A4800784A490978009115
:108DE0000190494803784948027849480178494840
:108DF00000787D252D01401910F0DEF93C4908600E
:108E000045480078012800E095E103D04248007809
:108E100002283FD140484078404908600846006831
:108E2000000208603C488078096808433B490860B4
:108E300008460068000208603748C078096808439F
:108E40003649086008460068000208603248007928
:108E500009680843314908602F4840793049086063
:108E600008460068000208602B48807909680843BA
:108E70002B49086008460068000208602648C0794F
:108E8000096808432649086008460068000249E06E
:108E90001CE1FAE0DBE0000000200020662000205A
:108EA00064200020C42100205C22002059220020E0
:108EB000582200203303000024E802002C20002068
:108EC00039200020DA21002034200020CD0C0000C1
:108ED00028E8020035220020742A0020F034002007
:108EE0000633002011E90200C72100205520002090
:108EF0004C200020030200003C200020142200200F
:108F0000C8210020C9210020CA210020CB21002037
:108F1000CC210020CD210020203300204020002043
:108F2000442000200860FD48007A09680843FC4995
:108F3000086003210520FFF75DF9012004F02AFCF9
:108F4000052002F07DFE00280AD1F44800780228AE
:108F500006D111200DF003FC4B20000104F01AFC97
:108F6000F0480068EE490968884209D2ED48006877
:108F7000ED490968884203D9E8480078012814D0EF
:108F8000E8480068E6490968884235D2E548006843
:108F9000E549096888422FD9E048007802282BD19A
:108FA000052002F04DFE012826D1092002F03EFEE8
:108FB0000DF07BF9D9480078012802D0022813D19E
:108FC00009E0DA49098888B2D6490A68FF210331E5
:108FD00009F0DDFE08E0D549098888B2D1490A6860
:108FE000D34909F0D4FE00BF00BF07F0D3FCFFF760
:108FF000F3FC07F0CBFC25E0C8480078012808D036
:10900000C648007802281DD1052002F019FE01286B
:1090100018D110200DF0A3FB092002F00CFE08204F
:1090200002F004FE1920400104F0B4FB082002F015
:1090300002FE092002F0FAFD07F0ACFCFFF7CCFCC1
:1090400007F0A4FC01210520FFF7D4F829E2B94874
:1090500000780028FAD10A200DF081FB092002F0E7
:10906000EAFD082002F0E2FD1920400104F092FB25
:10907000082002F0E0FD092002F0D8FD07F08AFC8C
:10908000FFF7AAFC07F082FC0BE210200DF067FB53
:10909000092002F0D0FD082002F0C8FD192040018F
:1090A00004F078FB082002F0C6FD092002F0BEFDA6
:1090B000FF20F53004F06EFB0A200DF050FB07F0A6
:1090C00069FCFFF789FC07F061FCEAE19A48007847
:1090D00000280BD1092002F0A9FD0DF0E6F807F0F9
:1090E00059FCFFF779FC07F051FCDAE19148007870
:1090F000002819D10A200DF032FB092002F09BFD57
:10910000082002F093FD1920400104F043FB0820E1
:1091100002F091FD092002F089FD07F03BFCFFF70A
:109120005BFC07F033FCBCE18248007800288DD05E
:10913000FFF7F1FAB5E181480078022886D107F0FF
:10914000C7FE7D48007801287ED17C48401C0CF089
:10915000F2FA7649086008460068002875D075481C
:109160000078002871D108460068032109060840EC
:10917000002806D16D4800680121890608400028B2
:10918000ECD06F4800780128ECD16E4800786E4929
:109190000978009101906D4803786D4802786D4818
:1091A00001786D4800787D252D01401910F004F8F4
:1091B0005C49086059480078032803D05748007874
:1091C00004287DD155484078574908600846006812
:1091D00000020860514880780968084352490860D5
:1091E00008460068000208604C48C07809680843D7
:1091F0004D49086008460068000208604748007949
:10920000096808434849086044484079444908606F
:1092100008460068000208604048807909680843F1
:109220003F49086008460068000208603B48C07972
:10923000096808433A490860084600680002086067
:109240003648007A096801E010E1CCE0084334496F
:10925000086003210520FEF7CDFF012004F09AFAF3
:10926000052002F0EDFC00280AD12C4800780428E3
:1092700006D111200DF073FA4B20000104F08AFA98
:109280002848006826490968884209D225480068AC
:1092900025490968884203D920480078032816D058
:1092A000204800681E490968884257D21D48006856
:1092B0001D490968884251D918480078042800E0FF
:1092C00077E04BD1052002F0BBFC012846D10920F4
:1092D00002F0ACFC0CF0E9FF10480078032802D043
:1092E000042813D109E01149098888B20D490A6898
:1092F000FF21033109F04BFD08E00C49098888B2D1
:1093000008490A680A4909F042FD00BF00BF07F09A
:1093100041FBFFF761FB07F039FB45E020330020FC
:10932000442000204C200020402000203C20002031
:109330000202000014220020DA210020F034002074
:10934000C7210020C8210020C9210020CA210020F7
:10935000CB210020CC210020CD210020FB4800782B
:10936000032808D0F948007804281DD1052002F010
:1093700067FC012818D110200DF0F1F9092002F046
:109380005AFC082002F052FC1920400104F002FAB5
:10939000082002F050FC092002F048FC07F0FAFA1D
:1093A000FFF71AFB07F0F2FA01210520FEF722FF72
:1093B00075E00A200DF0D3F9092002F03CFC0820EA
:1093C00002F034FC1920400104F0E4F9082002F016
:1093D00032FC092002F02AFC07F0DCFAFFF7FCFA65
:1093E00007F0D4FA5BE0DA480078002820D110209A
:1093F0000DF0B5F9092002F01EFC082002F016FC61
:109400001920400104F0C6F9082002F014FC0920DC
:1094100002F00CFCFF20F53004F0BCF90A200DF03E
:109420009EF907F0B7FAFFF7D7FA07F0AFFA36E080
:10943000C8480078002832D10A200DF090F90920A0
:1094400002F0F9FB082002F0F1FB1920400104F0C2
:10945000A1F9082002F0EFFB092002F0E7FB07F07A
:1094600099FAFFF7B9FA07F091FA18E010200DF019
:1094700076F9092002F0DFFB082002F0D7FB192063
:10948000400104F087F9082002F0D5FB092002F022
:10949000CDFB07F07FFAFFF79FFA07F077FAFFF7A7
:1094A0003AF9002004E0FF21AB4A1154411CC8B234
:1094B0008028F8D30022A949A948006806F065FE73
:1094C0001EE00420A74908700022A449A4480068AF
:1094D00006F05BFEA4480078002805D1A348006888
:1094E000401CA24908600BE00020A049086007E08A
:1094F00012F092F89E48008812F058FC07F04AFAE1
:1095000007F048FA18E09B480078012814D1102091
:1095100002F096FB00280FD09748007800280BD166
:1095200001209649087000208E49087000228B495E
:109530008B48006806F029FE0D2002F081FB002810
:1095400005D18D480078002801D10CF0AEFE7CBD1D
:1095500010B584480078002806D0012836D00428A9
:1095600035D0082830D130E08248007800281ED15C
:109570008349088007F00AFA12F096F912F04CF8C5
:1095800079480078002804D07E480088784908800F
:1095900003E0FFF79BF8764908807548008812F0D1
:1095A00005FC07F0F7F908206E4908700CE07448D4
:1095B0000088401C7249088008460088322803DB76
:1095C0000020088007F0E6F951E050E04FE06948DC
:1095D000007800284AD164480078002803D06A48FF
:1095E000006806F0FBFD07F0D1F95F48007800281D
:1095F00004D0644800885E49088003E0634800881E
:109600005B4908805A48008812F021FC00280CD0E1
:1096100000205449087012F047F9002051490870A1
:109620005B4908605B49087004E05A480078401CB8
:10963000584908705748007802280BDB002055492C
:1096400008704849087012F02FF900204549087049
:109650004F49086044480078002805D000224E4950
:109660004948006806F091FD07F094F900BF00BF7B
:1096700010BD30B5A7B0382119A815F04FF8022158
:1096800018A80171002181710621C17138210BA830
:1096900015F044F801216846818740491091242142
:1096A00002A815F03BF80121684601754B20000126
:1096B0000690039000200790394B02AA0BA9009056
:1096C00019A803F07BF9044600BF2546002D06D0FB
:1096D00000BF00221146284606F05AF900BF00BF1D
:1096E00027B030BD70B52F480078002876D14820CB
:1096F0002D490870592048701B480078002802D076
:109700005020887002E04920274988705F20264950
:10971000C870042404E0002023490855601CC4B22A
:109720001C2CF8D3002466E00520001B1F490E5CAA
:10973000F020304005462D110A2D39DA2846303008
:10974000C5B26000001D18490D543BE020330020D5
:10975000C721002014220020742A0020CD0C000014
:1097600028E802003920002064200020502000203A
:1097700036200020C42100205C220020542000203C
:109780005C2000202C20002024E802003020002053
:109790005820002056200020330300001E20002007
:1097A00055840100DA210020002000202220002022
:1097B00028464130C5B228460A38C5B26000001DAF
:1097C000F8490D5435072D0F0A2D08DA2846303098
:1097D000C5B26000401DF3490D540AE012E028466E
:1097E0004130C5B228460A38C5B26000401DED4977
:1097F0000D54601CC4B2062C96DBFEF71BFDFFF770
:10980000B1F817E0002404E00020E6490855601C88
:10981000C4B21C2CF8D3002406E0E349201D085CE8
:10982000E0490855601CC4B2182CF6DBFEF702FDB7
:10983000FFF71FFF70BD10B50446DC480078012813
:1098400018DB062002F0FCF9002813D1D848007874
:10985000401CD74908700846007805280FDD002015
:109860000870D2480078401CD04908701D200CF0C8
:1098700076FF04E00020CD490870CD490870CB4840
:10988000007806283DDD0020C849087007F07EF802
:109890000021084606F019FF07F017FE08F003F84C
:1098A00008F007F80AF03CFC0AF05FFE0CF0BBF889
:1098B0000CF0CEF807F057FD07F047FC0020BD493B
:1098C000087006F0D1FE07F065F8092002F0B3F940
:1098D000082002F0ABF9FF20F53003F05BFF082011
:1098E00002F0A9F9092002F0A6F9B348007800288F
:1098F00002D0092002F09AF904200CF030FFFFF7A3
:10990000F1FEFFF725FEAD480078082807D1A748EB
:109910000078002803D1AA48006806F05FFC10BD5B
:1099200008B5002017231A221821009019200FF0E3
:1099300026FF0A2003F02EFF0120A249087008BD6F
:1099400038B5002017231A221821009019200FF093
:1099500016FF0A2003F01EFF01209A49087000221A
:1099600099499A48006806F010FC044600BF254655
:10997000002D06D000BF00221146284606F008F848
:1099800000BF00BF38BD00208E49087090490860B4
:10999000704730B5A7B0382119A814F0BFFE0221D6
:1099A00018A80171002181710621C17138210BA80D
:1099B00014F0B4FE01216846818786491091242164
:1099C00002A814F0ABFE0021684601754B2000018F
:1099D000069000200790804B02AA0BA9009019A8BE
:1099E00002F0ECFF044600BF2546002D06D000BF64
:1099F00000221146284605F0CBFF00BF00BF27B06C
:109A000030BDF8B50546754AFF214931022002F004
:109A10009AF9044600BF2646002E06D000BF002259
:109A20001146304605F0B4FF00BF00BF6946002074
:109A300002F0DAFA044600BF2646002E06D000BF28
:109A400000221146304605F0A3FF00BF00BF684664
:109A50000078022801D1012000E000202870F8BD24
:109A600070B548DF044600BF2546002D06D000BF74
:109A700000221146284605F08BFF00BF00BF70BDD5
:109A80007CB5684671DF044600BF2546002D06D030
:109A900000BF00221146284605F07AFF00BF00BF34
:109AA000332069464870332168468170C170017166
:109AB00041716946002070DF044600BF2546002D35
:109AC00006D000BF00221146284605F061FF00BF06
:109AD00000BF7CBD10B504464148007800280DDD6C
:109AE00040480088401C3F49088008460088962866
:109AF00007DD002008803A49087002E0002039495B
:109B0000088039480068002823D038480068401C85
:109B10003649086036480068012801D100200860F5
:109B2000324800683349884216D900202F4908601E
:109B300006F02CFF322003F02DFE0021022007F05A
:109B4000F9FD00202849086006F08EFD06F022FF8E
:109B500002E000202549086017480078002853D10A
:109B600025480068401C24490860084600682349CD
:109B700088424CD922480078002848D106F006FFD8
:109B800011F092FE11F048FD1E49098888B212F0CA
:109B90000DF908200949087006F0FCFE002016495E
:109BA000086034E0002000208E32002034200020A5
:109BB0006120002062200020642000203920002045
:109BC00028E80200632000209A19000020E8020023
:109BD000002500401E20002055840100158701004B
:109BE000A52000209A200020E421002088200020C9
:109BF000E0210020C8AF0000A0200020302A000093
:109C0000C4210020302000200020FE490860FE48CA
:109C10000078002803D00020FC49088012E00020D2
:109C2000FB490880F9480088401CF849088008462C
:109C30000088FF21C331884204DD0020F3490880F9
:109C400012F018FFF348007802280CDDF248008873
:109C5000401CF149088008460088012803DD0020E7
:109C60000880EC490870ED48007801280DD1EC48D7
:109C70000078401CEA490870084600781E2807DD75
:109C800000200870FEF770FB02E00020E449087035
:109C9000E4480078002831D1072001F0D1FF0028E6
:109CA00027D1E14800888E2810DDE04800881E2872
:109CB00004DCDE480088401CDC490880DB48008862
:109CC0001E281BD133200CF04AFD17E0D64800882F
:109CD0008E2808D133200CF042FDD3480088401C68
:109CE000D14908800AE0D0480088401CCE4908804D
:109CF00004E00020CD490880CB490880CC480068AA
:109D000000282DD0CA4800680C2803D20020C8497A
:109D1000086025E0C7480078002821D1BA480078BB
:109D200000281DD103E07D20C00003F033FDFEF7C5
:109D300093FC0028F7D006F029FE11F0B5FD11F0D4
:109D40006BFCBD49098888B212F030F80820BB4985
:109D5000087006F089FC06F01DFE0020B44908607A
:109D600010BD70B5002001F06BFF002816D112F075
:109D70007FFE04460C2C11DC1D200CF0F0FC0920A9
:109D800001F054FF082001F056FFC82003F002FD47
:109D9000082001F050FF092001F048FF0A2C04D0F0
:109DA0000B2C0FD00C2C18D116E00020A449087001
:109DB000002504E0FF20A3494855681CC5B2332D97
:109DC000F8DB15E000219E4802780078401C9C4B8F
:109DD00018709C4881540BE00AE00A2C07DA984876
:109DE00001780078401C964A10709648445400BF91
:109DF00000BF70BDFEB50646002093490870934829
:109E00000078704307469248007886427ED8914891
:109E1000027801A902A807F02DFB0198C2B20298AE
:109E2000C1B23B468C4807F021FC002593E000249A
:109E30008DE020468549097848430B308649085C07
:109E40008049495D88427DD1204680490978484350
:109E50000C308149095C7B4A681C105C814275D1D9
:109E600020467A49097848430D307B49095CA81C93
:109E7000105C81426AD120467449097848430E300B
:109E80007549095CE81C105C81425FD120466F492E
:109E9000097848430F307049095C281D105C8142E5
:109EA00054D1204669490978484310306A49095C11
:109EB000681D105C814249D1002003E00021674AFF
:109EC0001154401C664909788842F7D3062063493B
:109ED000487120465D49097848430B305E49085C6B
:109EE0005E49887120465949097848430C305A49DF
:109EF000085C5A49C87120465449097848430D30D6
:109F00005549085C55490872204600E02AE04F494F
:109F1000097848430E305049085C50494872204641
:109F20004A49097848430F304B49085C4B498872CD
:109F3000204646490978484310304749085C47495C
:109F4000C87200E002E0601C80B2FEBD641CB44236
:109F500000D26EE76D1C3A480078401FA84200D935
:109F600065E79BE13A4800784000B042F9D33948B0
:109F7000027801A902A807F07DFA35480078334A33
:109F80001278504303460198C0B200900298C1B2C3
:109F90003148009A07F06AFB0025C4E00024BCE0C9
:109FA00020462A49097848430B302B49085C25494B
:109FB000495D88427ED120462449097848430C30C7
:109FC0002549095C1F4A681C105C814272D12046F9
:109FD0001E49097848430D301F49095CA81C105CD4
:109FE000814267D120461949097848430E301A4901
:109FF000095CE81C105C81425CD120461349097859
:10A0000048432FE0A0200020642000207E20002074
:10A0100066200020342000208420002029200020F9
:10A020002A200020622000209C2000209E2000206A
:10A0300050200020C42100203020002039200020A2
:10A04000A4200020F42A0020B020002010E9020003
:10A0500049E9020012E90200B8220020063300207C
:10A0600011E902000F30FA49095C281D105C814299
:10A0700052D12046F749097848431030F449095C29
:10A08000681D105C814247D1002003E00021F24AA4
:10A090001154401CF14909788842F7D30620EE4953
:10A0A00048712046EB49097848430B30E849085C81
:10A0B000E94900E030E088712046E64909784843E4
:10A0C0000C30E349085CE449C8712046E14909784D
:10A0D00048430D30DE49085CDF4908722046DD49FF
:10A0E000097848430E30DA49085CDB49487220465B
:10A0F000D849097848430F30D549085CD649887259
:10A100002046D449097848431030D149085CD249E7
:10A11000C872601C80B218E7641CD1480078844281
:10A1200000D23DE76D1CCF480078401FA84200D9FF
:10A1300034E7CD48027801A902A807F09BF9C84886
:10A140000078C449097848433B1A0198C2B2029882
:10A15000C0B201460090BE4807F088FA002597E09B
:10A1600000248EE02046BB49097848430B30B849AB
:10A17000085CBE49495D88427ED12046B5490978D0
:10A1800048430C30B249095CB84A681C105C8142F3
:10A1900076D12046AF49097848430D30AC49095C77
:10A1A000A81C105C81426BD12046AA49097848431B
:10A1B0000E30A749095CE81C105C814260D1204642
:10A1C000A449097848430F30A149095C281D105C57
:10A1D000814255D120469F490978484310309C4917
:10A1E000095C681D105C81424AD1002003E0002117
:10A1F000994A1154401C994909788842F7D306209E
:10A200009549487120469349097848430B30904955
:10A21000085C9149887120468E49097848430C3082
:10A220008B49085C8C49C87120468A4909784843A3
:10A230000D308749085C88490872204685490978AD
:10A2400048430E308249085C834948722046814960
:10A25000097848430F307E49085C7F498872204660
:10A260007C490978484310307949085C7A49C872BA
:10A270007B480078241800E002E0601C80B264E6AD
:10A28000641C77480078301AA04200D36AE76D1C3E
:10A2900074480078401FA84200D961E7002054E6C6
:10A2A000F0B585B00025ED4306F070FB06F04DFFDC
:10A2B00006F0DAF906F06EFB6D480078002843D10D
:10A2C00068480078032838DD6848007801281DD1E7
:10A2D00066484078022819D164488078032815D14F
:10A2E0006248C078042811D16048007905280DD152
:10A2F0005E484079062809D15A480078062805D1D9
:10A300000BF0D3FF00205749087066E30020554941
:10A310000870092001F08FFC082001F087FC05205F
:10A320000CF01DFA1920400103F034FA082001F066
:10A3300082FC092001F07AFC4FE331200CF00FFA87
:10A3400000204849087048E3494800780128DCD1DA
:10A3500006F0BEFD43480078032876DD45480078C6
:10A36000012873D13F48007805286FDD4248007806
:10A3700042490978009101904148037841480278A8
:10A3800041480178414800787D273F01C0190EF00F
:10A3900013FF3F49086006F0F9FA06F0D6FE0120E7
:10A3A00007F08DFA039000240398FFF723FD04467D
:10A3B000002C4CD1364801682A48007809F0BFF8D3
:10A3C0000028F6D12748007809F0D3FA0028F0D108
:10A3D0002F4801682348007809F067F90028E8D180
:10A3E00006F076FD24480078244909780091019010
:10A3F00023480378234802782348017823480078CB
:10A40000C0190EF0D9FE22490860E1210901204857
:10A41000006814F0ADF81E49086006F0B7FA002590
:10A4200010480078062837DB0E480078092833DC0E
:10A430001848007801282FD015480268094801788B
:10A440000A480FF01FFC05462BE0C0E27CE22BE13E
:10A45000B822002010E902000633002011E90200B2
:10A4600049E90200A420002013E90200F42A002098
:10A47000DA210020C7210020C8210020C9210020A6
:10A48000CA210020CB210020CC210020CD2100209A
:10A490004C200020DC210020F7480078012800D162
:10A4A00000250020F4490870002D07D00295029D78
:10A4B000280E0290029802902D022D0A03210520F9
:10A4C000FDF798FE012003F065F9052001F0B8FBC7
:10A4D000002808D1002D06D011200CF040F94B20A7
:10A4E000000103F057F9002D1DD0052001F0A8FB55
:10A4F000012818D1062D19D1E0480078082815D177
:10A5000009F0B0FA01280FD1DD480068E121090106
:10A51000484302460021084608F039FC0BF0C5FE0E
:10A520000020D84908708DE000258BE0082D41D12E
:10A53000D248007808283DD1002004E00021D24A0A
:10A540001154411CC8B2D14909788842F6DB082071
:10A55000CD494871CE4800788871CD484078C8719F
:10A56000CB4880780872CA48C0784872C8480079D9
:10A570008872C7484079C872C54880790873C44852
:10A58000C07948730023DB43BC480278C0490220ED
:10A5900008F046FFBA480068E12109014843024635
:10A5A0000021084608F0F3FB0BF07FFE0020B549C0
:10A5B000087047E00298854241D90298A8423AD2F1
:10A5C000002004E00021B04A1154411CC8B2AF4938
:10A5D00009788842F6DBA9480078AB494871002029
:10A5E00006E0AB490A5C811DA74B5A54411CC8B216
:10A5F000A24909788842F4DBA14801680298081A48
:10A600004019E1210901484303469C480278A049CA
:10A61000022008F089FE9A480068E12109014843B8
:10A6200002460021084608F0B2FB0BF03EFE002077
:10A630009449087006E000200290002502E0002006
:10A640000290002501210520FDF7D4FD002D20D129
:10A65000092001F0F0FA082001F0E8FA89480078B2
:10A66000401C8849087008460078042803D11C2043
:10A670000CF075F802E005200CF071F8192040018B
:10A6800003F088F8082001F0D6FA092001F0CEFA8C
:10A6900005E0681C002802D131200CF060F805F0BC
:10A6A000E3FF06F077F98EE1002C7DD0641E794837
:10A6B0000078844202D377480078241A0026204686
:10A6C000754909784843C01C7449085C0643360242
:10A6D0002046714909784843001D7049085C0643CB
:10A6E000360220466C4909784843401D6B49085C96
:10A6F000064336022046684909784843801D674969
:10A70000085C0643002004902046634909784843CA
:10A71000C01D6249085C0499084304900498000233
:10A72000049020465C490978484308305B49085C3E
:10A730000499084304900498000204902046564966
:10A740000978484309305549085C04990843049046
:10A7500004980002049020464F49097848430A3083
:10A760004E49085C04990843049045480068B0428B
:10A770007ED9434801680498814279D220464649EF
:10A7800009784843801C4549085C222841D10321AF
:10A790000520FDF72FFD012002F0FCFF052001F050
:10A7A0004FFA002809D100E0A7E011200BF0D7FFF5
:10A7B0004B20000102F0EEFF26E0394800783949CD
:10A7C0000978009101903848037838480278384871
:10A7D0000178384800787D273F01C0190EF0ECFC65
:10A7E0002749086021462C4A1278514311312B4ADF
:10A7F000505C23490A680121490208F0C8FA0BF0AD
:10A8000054FD00201F49087001210520FDF7F2FCCE
:10A8100095E02046204909784843801C1F49085C80
:10A82000122828D11E4800781E490978009101900D
:10A830001D4803781D4802781D4801781D4800789E
:10A840007D273F01C0190EF0B7FC0D490860214675
:10A85000114A127851431131104A505C08490A6874
:10A86000FF21013108F093FA0BF01FFD002000E0FA
:10A8700022E00449087062E0DC210020A4200020CE
:10A880004C200020A52000200633002011E9020002
:10A89000F42A002049E9020010E90200B822002051
:10A8A000C8210020C9210020CA210020CB2100207E
:10A8B000CC210020CD210020F7480078401CF6492B
:10A8C000087008460078042803D11C200BF047FFCD
:10A8D00002E00F200BF043FF092001F0ACF9082043
:10A8E00001F0A4F91920400102F054FF082001F002
:10A8F000A2F9092001F09AF921E0002C1FD1E748C4
:10A900000078E749097800910190E6480378E64825
:10A910000278E6480178E64800787D273F01C019B3
:10A920000EF04AFCE3490860084600210268084628
:10A9300008F02DFA0BF0B9FC0020D749087005F09B
:10A9400093FE06F027F83EE0DB48007800281AD195
:10A950000F200BF004FF092001F06DF9082001F031
:10A9600065F91920400102F015FF082001F063F994
:10A97000092001F05BF9FF20F53002F00BFF0A20FF
:10A980000BF0EDFE1FE0092001F055F9082001F061
:10A990004DF9C1480078401CBF490870084600784E
:10A9A000042803D11C200BF0DAFE02E005200BF096
:10A9B000D6FE1920400102F0EDFE082001F03BF91F
:10A9C000092001F033F90020BC49087005E031206E
:10A9D0000BF0C5FE0020B949087005B0F0BD70B598
:10A9E0000646B748007800281DDDB6480068401CC0
:10A9F000B449086008460068FF219131884215D9A2
:10AA00000020AF490870AF490860AF4800780128BE
:10AA10000CD10A200BF0A3FE0022AC4801780220E2
:10AA20000EF0D7FA02E00020A6490860A848007896
:10AA300000287DD098480078062879DAA548006873
:10AA400005F0CCFBFF2512F0FEF805460C2D04DCCA
:10AA50000A2D02D01D200BF082FE0A2D04D00B2DF2
:10AA60001CD00C2D27D123E031200BF078FE0820DC
:10AA700001F0DCF8FF202D3002F08CFE082001F000
:10AA8000DAF800208D490870002404E0FF20924984
:10AA90000855601CC4B2332CF8DB17E0002187484E
:10AAA00002780078401C854B18708B4881540DE06B
:10AAB000FFF7F6FB0AE00A2D07DA804801780078F4
:10AAC000401C7E4A10708448455400BF00BF7B483C
:10AAD000007833280EDB002078490870002404E059
:10AAE000FF207D490855601CC4B2332CF8DB3120AF
:10AAF0000BF035FE00207949088079480088401C19
:10AB00007749088077480078002802D0FF209130EC
:10AB1000088075480078012805D171480088FF2118
:10AB2000913188420FDA7048007800284DD100E05A
:10AB300052E06B4800884B21C900884245DB6248DF
:10AB40000078002841D15E48007800283DD10022DD
:10AB500066496048006805F018FB002060490880DD
:10AB600011F088FF002404E0FF205B490855601CB9
:10AB7000C4B2332CF8DB00205049087055480068F7
:10AB800005F02CFB092001F056F8082001F053F8DD
:10AB90005748007800280FD105F0F8FE10F084FE29
:10ABA00010F03AFD5349098888B211F0FFF80820E7
:10ABB0005149087005F0EEFE4B480078002801D19D
:10ABC000FEF790FD01F0ECF85AE0002247494148B9
:10ABD000006805F0DAFA53E02F480078062834DBE5
:10ABE0003C48006805F0FAFA092001F024F8082032
:10ABF00001F021F841480068401C4049086011F00C
:10AC000039FF3E4800683E4988420CD311F0A1FF4D
:10AC100000203A49086020490870082001F00BF82C
:10AC2000092001F003F8002001F00AF8002805D1FE
:10AC300012F009F80546642002F0ACFD00222B4911
:10AC40002448006805F0A1FA1AE000202449088091
:10AC500011F007FF002404E0FF201F490855601C85
:10AC6000C4B2332CF8DB002014490870194800687E
:10AC700005F0B4FA092000F0DEFF082000F0DBFF49
:10AC800070BD10B5102000F0DBFF002801D10120BD
:10AC900010BD0020FCE70000A5200020C8210020F6
:10ACA000C9210020CA210020CB210020CC21002076
:10ACB000CD2100204C200020C7210020A42000200E
:10ACC00014220020AC200020292000205F2000203A
:10ACD0006420002024E80200F42A00207E200020C6
:10ACE0006620002059220020DA21002033030000D2
:10ACF000C42100203020002039200020A82000207E
:10AD000060EA000010B505F041FE11F082FD0E2052
:10AD100000F08CFF05F03EFE10BD10B5FE48007837
:10AD2000002809D110F078FCFC48008811F03EF8AA
:10AD30000820F949087054E0F7480078082821D124
:10AD4000F7480078002819D013200FF0E9FDF549E5
:10AD500008700846007800280AD1102000F070FF23
:10AD6000002805D011F05CF80120EB49087038E0AC
:10AD700010F052FC0020E849087032E00020E6495B
:10AD800008702EE0E4480078012813D111F036FA5B
:10AD9000002803D011F06DFC002803D10420DE4907
:10ADA00008701EE010F0A0FFDC4908800020DA499E
:10ADB000087016E0D8480078042812D1FF202D3002
:10ADC00011F0EEFCD548008811F041F8002808D0B9
:10ADD0000020D1490870FF202D3011F0E1FC10F067
:10ADE00063FD10BD05F0D2FD11F013FD0E2000F043
:10ADF0001DFF10F079FFC949088010F00DFC6AE0D2
:10AE0000C5480078002811D110F006FCC34800881E
:10AE100010F0CCFF0820C049087000BFFFF731FFD9
:10AE20000028FBD10120BE49087054E0BA480078E0
:10AE3000082821D1BA480078002819D013200FF033
:10AE40006FFDB84908700846007800280AD1102024
:10AE500000F0F6FE002805D010F0E2FF0120AE4918
:10AE6000087038E010F0D8FB0020AB49087032E0E1
:10AE70000020A94908702EE0A7480078012813D1C6
:10AE800011F0BCF9002803D011F0F3FB002803D126
:10AE90000420A14908701EE010F026FF9F49088099
:10AEA00000209D49087016E09B480078042812D1C4
:10AEB000FF202D3011F074FC9848008810F0C7FF77
:10AEC000002808D0002094490870FF202D3011F090
:10AED00067FC10F0E9FC93E710B50E2000F0A6FE29
:10AEE00010F09AFB0E2000F0A6FE10BD10B504462F
:10AEF0008D480068401C8C4908608C480078002808
:10AF000001D18B4808608848006819280ED90020B4
:10AF1000854908608749087087490870FEF733FD46
:10AF200012F0F4FB8548006805F058F910BD10B523
:10AF30008348007801280FD182480068401C81496D
:10AF40000860084600688049884205D900207D498C
:10AF5000086014200BF003FC0D2000F071FE0128A6
:10AF600005D10020764908707649086002E001208A
:10AF70007349087010BD0EB5012074498863002024
:10AF80007349086073490880734908800BF042FADE
:10AF90000BF006FD642002F0FDFB7048006A70496A
:10AFA000086001200007406E6E49086006F0FAF85C
:10AFB0000BF005FD00206C490870002503E0FF2020
:10AFC0006A4948556D1C332DF9D300BF0023684AE8
:10AFD0000B21184605F05CF8064600BF3746002FE7
:10AFE00006D000BF00221146384604F0D1FC00BF55
:10AFF00000BF00BF6846FEF704FDFDF7D4FAFDF779
:10B0000019F9FDF783F9FEF734FBFDF7CAF90320C0
:10B0100001F072FD044600BF2646002E06D000BF98
:10B0200000221146304604F0B3FC00BF00BF0420EC
:10B0300077DF504A0121504805F078F8044600BFF8
:10B040002646002E06D000BF00221146304604F0EE
:10B050009FFC00BF00BF002205218903464800680D
:10B0600005F093F8044600BF2646002E06D000BF28
:10B0700000221146304604F08BFC00BF00BF3F4A5F
:10B0800001213F4805F052F8044600BF2646002E35
:10B0900006D000BF00221146304604F079FC00BF04
:10B0A00000BF384A0121384805F040F8044600BF87
:10B0B0002646002E06D000BF00221146304604F07E
:10B0C00067FC00BF00BF314A01211C4805F02EF883
:10B0D000044600BF2646002E06D000BF00221146BF
:10B0E000304604F055FC00BF00BF05F04FFC502077
:10B0F00006F0E5FB2649087001A871DF044600BF91
:10B100002646002E06D000BF00221146304604F02D
:10B110003FFC00BF00BF3DE039200020362000206A
:10B120003820002035220020B420002059220020A1
:10B1300088130000582200205C22002020E8020032
:10B1400048200020DC20002010980200400500402C
:10B15000D82000209E2000209C20002040000010CD
:10B16000B8200020BC200020A4200020F42A0020C9
:10B17000B02B0020D59A01001CE80200DFA90100D5
:10B1800024E802003798010028E80200EDAE010033
:10B1900062200020002505E001A80130405DFA4949
:10B1A00048556D1C062DF7D3FEF79CFA0020F74991
:10B1B000087005F059FA05F0EDFBFFF7A3FD03E079
:10B1C0007D20C00002F0E6FAFDF746FA0028F7D02D
:10B1D00005F0DCFB10F068FB10F01EFAEC49098862
:10B1E00088B210F0E3FD0820EA49087005F03CFA47
:10B1F00005F0D0FB05F0CAFB0BF0E1FB05F034FADB
:10B2000005F0C8FB642002F0C5FA11F033FC0321FD
:10B210000720FCF7EFFF00BF0BF0D1FBDE48007802
:10B22000002801D100F0BCFDDC480078002808D1DE
:10B23000DB480078002804D1D7480078002800D1E6
:10B2400074DFD8480078002801D1FEF709FCFFF729
:10B250006EFEE1E710B5D4480078012811D1CE4840
:10B26000007801280AD1D1480078002806D10120B1
:10B27000CE490870CE48006804F0B0FF11F0BEFE61
:10B2800010E0C548007801280CD1C8480078012892
:10B2900008D10020C54908700022C649C44800688A
:10B2A00004F073FFC448007800280DD0C34800683C
:10B2B000012809D1C2480078002805D1C14800689A
:10B2C000401CC049086004E00020BB490870BD492B
:10B2D0000860BC480068BC49884204D913F07CF877
:10B2E0000020B849086010BD10B5B84800780028A3
:10B2F00005D1B7480078012801D1B4490870AE489B
:10B300000078002804D00020B0490870B0490870C7
:10B31000AE480078030013F064FA120A0B1A2133C6
:10B32000518799BBC2D4FAF8F7F6F5F4F3F279E253
:10B330009B480078012806D10820A44908706420A1
:10B3400002F028FA02E00220A04908706AE2002018
:10B35000A049088003209D49087063E29D48008849
:10B36000401C9C49088008460088FF212D318842F6
:10B3700005DB00209749088004209449087051E2B9
:10B38000002005E09449095C944A1154411CC8B25C
:10B390000C28F7D30C21914811F016FE002004E090
:10B3A00000218F4A1154411CC8B23228F8DB00201A
:10B3B0008849088005208549087033E2854800885F
:10B3C000401C84490880084600888649884205DB7D
:10B3D00002207E49087000207E490880804800785D
:10B3E000EF2812D17E48407801280ED17C48007A9F
:10B3F00003280AD17A48407A022806D106207349E8
:10B4000008700020734908800DE075480078EF2827
:10B4100009D173484078012805D102206B49087092
:10B4200000206C490880FDE16A480088401C694999
:10B43000088008460088FF212D31884205DB002066
:10B4400064490880072061490870EBE112F0C0FAF6
:10B45000012808D100205D49087012F057F900203A
:10B460005B49087013E05B480088401C594908801C
:10B4700008460088FF212D31884208DB002055490D
:10B480000880062051490870002051490870C9E120
:10B4900000205049088009204C490870C2E14D48FD
:10B4A0000088401C4B49088008460088FF212D3148
:10B4B000884205DB0020474908800A20434908707C
:10B4C000B0E1002005E04449095C444A1154411CA4
:10B4D000C8B20C28F7D30C21404811F075FD0020AC
:10B4E00004E000213E4A1154411CC8B23228F8DB66
:10B4F0000020384908800B203449087092E18DE122
:10B500004EE104E1E5E0AEE08FE07CE0FFE73148AA
:10B510000088401C2F49088008460088314988422D
:10B5200005DB09202949087000202A4908802C4899
:10B530000078EF2811D12A48407801280DD12848F9
:10B54000007A032809D12648407A022805D11F49EC
:10B55000087000201F49088054E021480078EF2837
:10B5600042D11F48407801283ED11D48007A032867
:10B570003AD11B48407A002836D10C201349087074
:10B580000020144908803DE022200020A520002052
:10B5900030200020392000206420002029200020B5
:10B5A000DA2100204820002063200020E020002035
:10B5B00024E80200330300005A2200206822002001
:10B5C000F4200020C0200020DC050000E82000203E
:10B5D00058220020EA200020C8E90200272B002082
:10B5E000D4360020204E0000FB480078EF2809D117
:10B5F000F9484078012805D10220F8490870002058
:10B60000F74908800EE1F6480088401CF44908809C
:10B6100008460088FF212D31884205DB0020F049D3
:10B6200008800D20ED490870FCE0002005E0ED49A0
:10B63000095CED4A1154411C88B20D28F7D30D2145
:10B64000E94811F0C1FC002004E00021E24A115455
:10B65000411C88B23228F8D30020E14908800E202E
:10B66000DE490870DEE0DE480088401CDC490880C6
:10B6700008460088DD49884205DB0C20D749087060
:10B680000020D7490880D4480078EF2812D1D2484A
:10B69000407801280ED1D048007A03280AD1CE483C
:10B6A000407A002806D10F20CC4908700020CC49F0
:10B6B00008800DE0C8480078EF2809D1C6484078D6
:10B6C000012805D10920C54908700020C449088017
:10B6D000A8E0002005E0C649095CC34A1154411C9A
:10B6E000C8B21128F7D31121BF4811F06DFC00201A
:10B6F00004E00021B84A1154411CC8B23228F8D3E2
:10B700000020B74908801020B44908708AE0B44886
:10B710000088401CB249088008460088B349884226
:10B7200005DB0C20AD4908700020AD490880AA480F
:10B730000078EF2833D1A848407801282FD1A648B7
:10B74000007A072825D1A448407A002803D0A248CF
:10B75000807A01281DD10020C043A64908809E4858
:10B76000807A08809C48C07A09884018A1490880DE
:10B7700008460088A0490978884206DD2A200AF098
:10B78000EEFF02209549087009E0112093490870E6
:10B7900005E02A200AF0E3FF02209049087041E00A
:10B7A000944800880AF08AFA9449086008460068BC
:10B7B000934988422BD005F0E9F890480068FF21B2
:10B7C000090408408D490860084600680121090401
:10B7D000884208D18B48FF210231026885480088E1
:10B7E00007F0D5FA0CE08548006801214904884239
:10B7F00006D18448844902687E48008807F0C7FA69
:10B8000004F032FF05F0C6F80AF04FFD02E02A20EE
:10B810000AF0A5FF02207149087003E002206F4979
:10B82000087000BF00BF10BD10B578480078002830
:10B8300042D17748007800283ED176480078002829
:10B840003AD175480078002836D17448007800282D
:10B8500032D173480088002806D0012805D002287C
:10B8600010D0032821D11AE025E007206A4908708A
:10B8700066480078002801D111F01DFF00206849BA
:10B88000088018E00A2064490870604800780028A1
:10B8900001D111F010FF0020614908800BE0002069
:10B8A0005D4908705E49088005E000205A4908702B
:10B8B0005B49088000BF00BF57480078030012F0C2
:10B8C00090FF0D080C13254378B5D1E3F9F8F7F68E
:10B8D000F500002053490880A6E100205149088066
:10B8E00002204D4908709FE14E480088401C4D4998
:10B8F000088008460088FF212D31884205DB0020A2
:10B90000484908800320444908708DE1002005E083
:10B910004549095C344A1154411CC8B20C28F7D37C
:10B920000C21314811F050FB002004E000212A4A8C
:10B930001154411CC8B23228F8DB00203949088074
:10B940000420354908706FE136480088401C3549AD
:10B950000880084600882549884205DB05202E49D5
:10B96000087000202F4908801B480078EF2812D16A
:10B970001948407801280ED11748007A03280AD1C7
:10B980001548407A022806D1052023490870002076
:10B99000244908800CE010480078EF2808D10E48B0
:10B9A0004078012804D11C49087000201D490880F6
:10B9B0003AE11C480088401C1A4908800846008863
:10B9C000FF212D31884205DB002016490880062022
:10B9D0001149087028E10000D4360020E82000203A
:10B9E000EA200020F8E90200272B0020204E00006A
:10B9F00061EA0200EE2000204BE90200E420002072
:10BA0000FFFF00004C20002001020000592200200E
:10BA1000582200205A220020F42000206420002018
:10BA2000F2200020F6200020C8E9020011F0D0FF2B
:10BA3000012805D100208649087011F067FE10E04A
:10BA400084480088401C8349088008460088FF21FC
:10BA50002D31884205DB00207E49088005207C4985
:10BA60000870E1E07B480088401C7A49088008465D
:10BA70000088FF212D31884205DB002075490880B0
:10BA8000082073490870CFE0002005E07249095C86
:10BA9000724A1154411CC8B21028F7D300206F49D4
:10BAA00088726F480078C87200240BE0B8E085E027
:10BAB00066E053E020E0694A811D515C09198CB2AF
:10BAC000411CC8B20828F6D3002064498873CC739F
:10BAD0001021624811F078FA002004E00021614A48
:10BAE0001154411CC8B23228F8DB092058490870AB
:10BAF00000205849088097E056480088401C554966
:10BB00000880084600885849884205DB07205049CC
:10BB1000087000204F49088052480078EF281CD157
:10BB200050484078012818D14E48007A03280ED199
:10BB30004C48407A002803D04A48407A012806D170
:10BB400001204349087000204249088005E0072091
:10BB50003F49087000203F49088065E03D48008863
:10BB6000401C3C49088008460088FF212D3188424E
:10BB700005DB0020374908800B203549087053E069
:10BB8000002005E03949095C344A1154411CC8B20F
:10BB90000C28F7D30C21314811F016FA002004E0EC
:10BBA0000021304A1154411CC8B23228F8DB002071
:10BBB000284908800C202649087035E0254800886F
:10BBC000401C24490880084600882749884205DB34
:10BBD00001201F49087000201E4908802148007874
:10BBE000EF281CD11F484078012818D11D48007A41
:10BBF00003280ED11B48407A002803D01948407A08
:10BC0000012806D10120124908700020114908803E
:10BC100005E001200E49087000200E49088003E06D
:10BC200001200B49087000BF00BF10BD01218140F9
:10BC30000F4A91607047012181400D4AD1607047E1
:10BC400001460B480069C840C007C00F704700009C
:10BC5000F4200020F620002092EA0200272B00208A
:10BC6000F0200020D4360020204E0000AEEA020072
:10BC70000005005030B50146002000240C606C4CDB
:10BC80002469E34300220DE094006A4D2D5D0124F8
:10BC9000AC401C40002C04D0012595400C682C437E
:10BCA0000C60521C052AEFD330BD10B50246052AA0
:10BCB0000FD25F4B1B69D84393005E4CE45C0123B9
:10BCC000A3400340002B01D0012300E000230B70B0
:10BCD00001E000200870002010BD70B504460D463C
:10BCE000FCF7F8FE70BD10B5044620780221FFF77E
:10BCF000F4FF10BD01460020704730B503460D46E5
:10BD00001846FFF7F7FF0446204630BD10B503463E
:10BD10000020052B15D2012A07D1012903D11C4689
:10BD20000D34E4B200E000242246002906D00129A7
:10BD300002D0022903D100E002E001E000E000BFF0
:10BD400000E0072010BDF8B506460F46002402208B
:10BD50003040002822D0002506E001221146284666
:10BD6000FFF7D4FF04466D1C052D01D2002CF4D042
:10BD7000002C05D17A0805212F4803F07DFD0446EB
:10BD8000002C02D103F0B8FD0446002C05D12B4A4B
:10BD900000212B4804F0CAF9044600BF2046F8BD34
:10BDA00070B50024002506E0012211462846FFF761
:10BDB000ADFF04466D1C052D01D2002CF4D0002CE3
:10BDC00002D103F099FD0446204670BD10B503F082
:10BDD00093FD10BD10B503F0A0FD10BD70B5024677
:10BDE000002021E08400134D2C59A400154D641946
:10BDF0002168012484401440002C01D0032400E079
:10BE00000024234603252D040C46AC4321461C0484
:10BE100021430524240707252D0264198500054EBA
:10BE20007559AD006151401C0528DBD3002070BD61
:10BE30000005005048E802005CE80200E7BC010091
:10BE400044E802000007005010B501220021084616
:10BE5000FFF75CFF044600BF002C03D0072C01D085
:10BE6000204610BD00BF072202210120FFF74EFF30
:10BE7000044600BF002C03D0072C01D02046F0E779
:10BE800000BF042202210020FFF740FF044600BF4C
:10BE9000002C03D0072C01D02046E2E700BF002091
:10BEA000DFE710B5012202210020FFF72FFF044633
:10BEB00000BF002C03D0072C01D0204610BD00BFCE
:10BEC000072202210120FFF721FF044600BF002CBA
:10BED00003D0072C01D02046F0E700BF0A22002142
:10BEE0000846FFF713FF044600BF002C03D0072CC1
:10BEF00001D02046E2E700BF0020DFE77CB5044622
:10BF000001A90020FFF7D1FE054600BF002D01D09A
:10BF100028467CBD00BF69460120FFF7C6FE0546E6
:10BF200000BF002D01D02846F3E700BF6846007827
:10BF3000002802D00220207008E06846007900281E
:10BF400002D00B20207001E0002020700020E0E7EC
:10BF500010B50320FFF742FF044600BF002C03D0BA
:10BF6000062C01D0204610BD00BF0020FBE770B5B5
:10BF700005462888102802D0112832D118E0284818
:10BF8000006800280ED1FFF75FFF044600BF002CB9
:10BF900007D024480068002803D0204621490968BA
:10BFA000884700BF1E480068401C1D49086019E012
:10BFB0001B480068401E1A490860084600680028AF
:10BFC0000ED1FFF76EFF044600BF002C07D01548C6
:10BFD0000068002803D0204612490968884700BF3E
:10BFE00000E000BF00BF70BD70B505460C460026DE
:10BFF0000C480560002C09D02046FFF77FFF06465D
:10C0000000BF002E01D0304670BD00BF044800685C
:10C01000002802D1FFF745FF06463046F4E700004E
:10C02000FC200020F82000200321094802680A4370
:10C030000260084802680A430260074880470748D0
:10C040000047FEE7FEE7FEE7FEE7FEE7FEE700004B
:10C05000240500405405004005C10100C1800100D5
:10C0600032483349086070473248008CC0B201281A
:10C0700012D13048808C0007000F00280CD12D48C9
:10C08000806AF0210840402806D12A48C06A08404A
:10C09000002801D1012070470020FCE72548008CD2
:10C0A000C0B201282CD12348808C0007000F002843
:10C0B00026D12048806AF0210840002806D11D487A
:10C0C000C06A0840002801D1012070471948806AE1
:10C0D000F0210840102806D11648C06A0840002800
:10C0E00001D10120F1E71348806AF021084030288F
:10C0F00006D11048C06A0840002801D10120E4E7B9
:10C100000020E2E710B5FFF7C9FF002805D00A4874
:10C110000A494860C8130A498861FFF7A5FF00284B
:10C1200002D001200749886010BD00000024F400FF
:10C1300000210020C00F00F0DFFF07C00005004015
:10C14000006C00400006004070B504461D46108893
:10C150001230A84201D90C2070BD112016888855D4
:10C160001088401C10801020168888551088401CAC
:10C1700010800F2307E0E05C16888855581E43B2F4
:10C180001088401C1080002BF5DA0020E4E730B561
:10C1900004461088C01C984201D90C2030BD0220F2
:10C1A000158848551088401C10801C20158848555B
:10C1B0001088401C1080012C06D0022C08D0032CC3
:10C1C0000AD0042C10D10BE00020158848550DE052
:10C1D00001201588485509E002201588485505E0DA
:10C1E00003201588485501E00720D7E700BF1088D5
:10C1F000401C10800020D1E7FEB505460C461746CE
:10C2000020880930B84201D90C20FEBD684671DF94
:10C210000646002E01D03046F7E7082021886854F2
:10C220002088401C20801B20218868542088401CC6
:10C23000208021884819062200A9013112F055FA00
:10C240002088801D208068460078002802D121883F
:10C25000685402E00120218868542088401C208016
:10C260000020D2E7FFB583B005460F461446287874
:10C27000012805D16878002802D1072007B0F0BD59
:10C280002088801C0699884209D82878012808D17E
:10C290002088801C697841180698814201D90C20B9
:10C2A000ECE721880698401A801E86B20196218804
:10C2B000891CC81901A97DDF02900298002801D0CD
:10C2C0000298DBE72878022806D168468088B042C9
:10C2D00002DC092000900BE008200090287801285B
:10C2E00005D16878B04202DC6878019000E00196E0
:10C2F00068468088FE2801D90C20BFE76846808800
:10C30000401C218878542088401C20802188009877
:10C3100078542088401C208021886846808808182E
:10C3200020800020AAE7F8B505460C46174620886D
:10C33000001DB84201D90C20F8BD684679DF0646D9
:10C34000002E01D03046F7E703202188685420886A
:10C35000401C20801920218868542088401C20809F
:10C36000208841196846008800F001FB21884018A8
:10C3700020800020E0E730B504461088C01C9842B9
:10C3800001D90C2030BD0220158848551088401C6A
:10C3900010800120158848551088401C1080158891
:10C3A0004C551088401C10800020EBE730B5044647
:10C3B0001088C01C984201D90C2030BD022015887D
:10C3C00048551088401C1080112015884855108849
:10C3D000401C108010880C541088401C10800020D5
:10C3E000EBE730B504461088C01C984201D90C20F8
:10C3F00030BD0220158848551088401C10800A2046
:10C40000158848551088401C108015884C55108898
:10C41000401C10800020EBE7FFB587B006461D46A4
:10C42000109C0020069020880590002749E0B90064
:10C43000706841180A88684682804988C180002255
:10C4400002A901A865DF03900398002802D0039891
:10C450000BB0F0BD6846017A0998814230D1069848
:10C46000002801D0002000E00220009020886946CA
:10C47000097A4118009809181198814201DD0C20B1
:10C48000E6E7069800280AD12088401C20802188F1
:10C49000089868542088401C20800120069020883D
:10C4A000421902A901A865DF03900398002801D072
:10C4B0000398CDE721886846007A0818208000BFDD
:10C4C0007F1C3088B842B2DC069800280ED0218844
:10C4D0000598401C081A80B204900498FF2801DDDA
:10C4E0000C20B5E70498C1B2059829540020AFE7A5
:10C4F000FFB583B015460D9F0C9E01970096022252
:10C50000069B04990398FFF787FF0446002C02D08E
:10C51000204607B0F0BD0197009610222946069BE1
:10C520000398FFF779FF0446002C01D02046F0E77E
:10C530000020EEE701460888062808DB0888192253
:10C54000D201904205DD0888FB4A904201D00720C5
:10C5500070474888062808DB48881922D201904293
:10C5600005DD4888F44A904201D00720F0E70888AA
:10C57000F14A904208D04888904205D008884A88FD
:10C58000904201DD0720E3E70020E1E7FFB581B03D
:10C5900006460D4614462088801D0499884202D91B
:10C5A0000C2005B0F0BD3046FFF7C4FF0746002F52
:10C5B00001D03846F5E70520218868542088401CC2
:10C5C00020801220218868542088401C20802288E6
:10C5D0005119308800F0CBF921884018208022883A
:10C5E0005119708800F0C3F921884018208000207C
:10C5F000D7E7FFB581B005460E461446A888871CCC
:10C600002088801CC1190498814202D90C2005B0F1
:10C61000F0BDFE2F01D90C20F9E7781C2188705459
:10C620002088401C2080FF20218870542088401CD6
:10C63000208022889119288800F099F921884018D3
:10C640002080A88800280EDDA868002801D10720D6
:10C65000DDE7AA8823889819A96812F046F820888F
:10C66000A988401820800020D1E7FEB507460E4675
:10C670001446B86A002801D10720FEBD00200190B1
:10C6800037E0B96A0C22019850430D18A888801C25
:10C6900000900098FE2801D90C20EEE70098401C7D
:10C6A000218870542088401C2080162021887054D6
:10C6B0002088401C208022889119288800F057F992
:10C6C000218840182080A88800280EDDA86800284E
:10C6D00001D10720D1E7AA8823889819A96812F008
:10C6E00004F82088A988401820800198401CC0B216
:10C6F00001902C20C15D01988142C2DC0020BCE782
:10C70000F7B582B0044616460025378800203080F1
:10C71000606B00280CD0616B08783B463246039969
:10C72000FFF744FE0546002D02D0284605B0F0BDB7
:10C73000206B00280AD03B463246206B0399FFF756
:10C7400003FD0546002D01D02846EFE72E20005DB1
:10C7500000280BD02E21085D3B4632460399FFF797
:10C7600016FD0546002D01D02846DFE72D20005D8F
:10C77000002809D03A4631460398FFF73DFD0546AB
:10C78000002D01D02846D1E7A078002809D03A46EC
:10C7900031460398FFF7C7FD0546002D01D0284616
:10C7A000C4E7E07800280BD0E17848B23B46324637
:10C7B0000399FFF7E0FD0546002D01D02846B5E7B7
:10C7C000606800280CD00020616808563B4632465D
:10C7D0000399FFF706FE0546002D01D02846A5E780
:10C7E000208900280DDD01970096062202212046AF
:10C7F0000830039BFFF77CFE0546002D01D028463C
:10C8000094E7208A00280DDD019700960722032176
:10C8100020461030039BFFF76BFE0546002D01D02C
:10C82000284683E7208B00280DDD0197009615220E
:10C83000142120461830039BFFF75AFE0546002DB1
:10C8400001D0284672E7206A00280AD03B463246CB
:10C85000206A0399FFF79AFE0546002D01D028466D
:10C8600064E7606A00280AD03B463246606A039952
:10C87000FFF7BFFE0546002D01D0284656E72C20C5
:10C88000005D00280ADD3B46324620460399FFF74B
:10C89000ECFE0546002D01D0284647E72078002809
:10C8A0000AD03B46324620460399FFF7DBFC05469B
:10C8B000002D01D0284639E7284637E70146C878D9
:10C8C00004221040002801D1072070470020FCE717
:10C8D0000146C878002801D0072070470020FCE7F7
:10C8E000F3B593B00D461F211291119113980028B2
:10C8F00014D01398FFF7E2FF0446002C02D0204624
:10C9000015B0F0BD12AA09A91398FFF7F9FE044665
:10C91000002C01D02046F3E709AE02E000260020FB
:10C920001290002D16D02846FFF7D2FF0446002CA7
:10C9300004D02046E4E70000FFFF000011AA01A98F
:10C940002846FFF7DDFE0446002C01D02046D7E73D
:10C9500001AF02E000270020119010A88088C3B228
:10C9600010A80089C1B23A46304672DFC8E70246D5
:10C970000A70FF2000021040001248700220704729
:10C9800001460879002802D1087B002801D0012047
:10C9900070470020FCE710B50721FE4811F0BEFEED
:10C9A00010BD0246002105E0505C002801D00120A6
:10C9B0007047491C0629F7D30020F9E7F8B504466B
:10C9C0000F4615461E46002C01D0002D01D10E2029
:10C9D000F8BD0020F0490870F0480660F04906985C
:10C9E000086024222946EF4811F07FFEFFF7D3FFAD
:10C9F000ED48EE490860EE4888603821ED4811F0B6
:10CA00008DFE2078EB490870A0788870E078C870B7
:10CA100060784870626920694A6108610846E26886
:10CA2000A168C2608160E269A169C2618161606AD6
:10CA300000281BD0E048DF494862E0498160606A15
:10CA40000088DC49496A0880606A8088D949496A57
:10CA50008880002005E0616A8968095CD74A115422
:10CA6000401CD449496A89888142F4D8A06A0028C8
:10CA700024D0D349D3488160CE498862D049CD487B
:10CA8000806A8160A06A8088CA49896A8880A06AB1
:10CA90000088C849896A0880002005E0A16A896881
:10CAA000095CC74A1154401CC249896A898881427D
:10CAB000F4D82C20015DBF4820300173206A002883
:10CAC0000BD0C148BB490862206A4088096A488087
:10CAD000206A0088B749096A08806068002804D085
:10CAE000BA48B4494860606848603946B148FFF7C1
:10CAF000F7FE009000986BE730B587B00546A64872
:10CB0000057000200090684602F017FE0446082CCD
:10CB100002D10020009004E0002C02D0204607B093
:10CB200030BD0098002804D00120A94908700020D9
:10CB3000F5E7FFF730FF9B484078002803D0964880
:10CB40000078012807D097488078002812D09248B2
:10CB5000007802280ED191480068002807D00120F3
:10CB60009C49087008208D490968884702E0002028
:10CB7000984908708848007801280CD18948407885
:10CB8000002805D08348401CFFF70BFF002802D186
:10CB90000220814908708048007802280CD1814821
:10CBA0008078002805D07B48401CFFF7FAFE00285B
:10CBB00002D10320784908707A48007B002806D10A
:10CBC00075480078032802D104207349087075481D
:10CBD000007E002808D170480078042804D1002085
:10CBE0006D4908707C4908706C480068002817D0AF
:10CBF00069480078032803D06748007804280FD1DB
:10CC00006848007800280BD074480078002807D1C5
:10CC1000012073490870072060490968884702E0CD
:10CC200000206F490870182101A811F077FD00213C
:10CC3000684601710020029068460173002004904C
:10CC400055480078012806D0022810D0032821D0AA
:10CC5000042877D14EE04F480290012168460171C7
:10CC60000021C182818201205B49087074E049483B
:10CC700002900121684601714A48008981B26846E4
:10CC8000C1824848808881B2684681820220524928
:10CC9000087061E04348808A81B26846C182414899
:10CCA000008A81B2684681824048FFF769FE002809
:10CCB0001CD03C480078002818D04848007800284C
:10CCC00014D1022069460873384804900420394979
:10CCD000C87000213748FFF703FE0446002C01D03E
:10CCE00020461CE705203C49087002E003203A4931
:10CCF000087031E02B48808B81B2684681822948D8
:10CD0000008C81B26846C1822848FFF739FE0028AE
:10CD10001DD024480078002819D030480078002819
:10CD200015D1022069460873204804900420214947
:10CD3000C87000211F48FFF7D3FD0446002C02D025
:10CD40002046ECE607E006202349087002E00420B4
:10CD50002149087000E000BF00BF0F48007800289C
:10CD600040D06846007E4108490068460176007E52
:10CD700002218843014668460176007E04218843EB
:10CD80006946087601A873DF0446002C2AD02046A5
:10CD9000C5E60000052100201821002010210020F8
:10CDA00014210020A02F0020D42F0020C42F002009
:10CDB000F42F0020682F00201430002020300020A5
:10CDC0004C300020403000201C2100202021002079
:10CDD000042100201B2100200C210020192100200B
:10CDE0001A21002098480068002804D0974800784D
:10CDF000954909688847002091E630B587B0044618
:10CE0000934804706846007E41084900491C684602
:10CE10000176007E02218843811C68460176007EEF
:10CE200004218843001D6946087601A873DF054682
:10CE3000002D02D0284607B030BD0020FBE770B5BA
:10CE400004462088102804D0112806D0192869D15A
:10CE50001AE0A0887F49088065E000207E490870BC
:10CE6000A0887C49098888420DD10120FFF744FE43
:10CE70000546002D07D079480068002803D02846D1
:10CE80007649096888474EE0A079002849D1704862
:10CE90000078012806D0022813D0032820D00428C7
:10CEA0003DD12FE00220FFF727FE0546002D07D0D9
:10CEB0006A480068002803D02846684909688847FE
:10CEC0002EE00320FFF718FE0546002D07D063482B
:10CED0000068002803D028466049096888471FE099
:10CEE00003205A4908700420FFF706FE0546002D6E
:10CEF00007D05A480068002803D0284657490968D7
:10CF000088470DE00020514908704F48006800280C
:10CF100004D0084600784C490968884700E000BF03
:10CF200000BF00E000BF00BF70BD70B50446002523
:10CF3000022C02D0032C18D100E000BF4848007832
:10CF4000002811D000204649087041480078FFF7BA
:10CF5000D3FD0546002D07D040480068002803D0C7
:10CF600028463E490968884700E000BF00BF70BD01
:10CF700001463C480078002801D108207047087815
:10CF8000394A1070002005E04A1C135C364A521CD6
:10CF90001354401C0628F7DB0020324A107000BFF3
:10CFA000ECE710B5024631480078002801D108208E
:10CFB00010BD10792E4B1871107B1873002106E0FC
:10CFC0008B009068C0588B002A4CE050491C2848C0
:10CFD000007B8842F4D8002106E08B001068C0581E
:10CFE0008B00254CE050491C214800798842F4D838
:10CFF00000201E4B187000BFDAE710B51F480078FC
:10D0000001281FD11448007800281BD1104800784F
:10D01000002805D074DF0446002C01D0204610BD46
:10D0200001200D4908700A480078FFF765FD0446A5
:10D03000002C07D009480068002803D02046074983
:10D04000096888470020EAE7102100200C21002011
:10D050001821002022210020192100201421002065
:10D06000042100201B210020052100201A2100207E
:10D07000C42F0020F42F0020D42F0020A02F002048
:10D0800001464888B74A1288904206DB4888B54A6C
:10D090005288904201DC012070470020FCE738B53F
:10D0A0000546B1480088B14988423BD0B048007875
:10D0B000401CAF490870AF48007B097888420FDBFD
:10D0C000A849A948008875DF0446002C07D0A94864
:10D0D0008069002803D0A74881692046884721E05D
:10D0E0000020A3490870A348007C00280FD03B21F2
:10D0F0009D48008876DF0446002C07D09D48806953
:10D10000002803D09B4881692046884700BF994882
:10D110004069002806D00020009096484169684682
:10D12000884700BF38BD70B505461C222946914886
:10D1300011F0DBFA002090490870286800280BD015
:10D1400008228848296811F0D0FA86487ADF044618
:10D15000002C08D0204670BD82487BDF0446002C9E
:10D1600001D02046F7E70020C0437F490880002017
:10D170007F490870814A0021814802F0D7FFEAE721
:10D1800010B57F48006803F029F810BD38B57D4818
:10D19000FFF776FF002829D17748007800280AD0C9
:10D1A00074484069002820D00020009071484169EF
:10D1B0006846884719E06E480078002802D16D481B
:10D1C000456801E06B488568002229466C48006884
:10D1D00002F0DBFF0446002C07D066488069002877
:10D1E00003D064488169204688470AE06148406965
:10D1F000002806D0012000905E48416968468847B3
:10D2000000BF00205C49087038BD10B50446A088F6
:10D21000554908800822214616315A4811F065FA0E
:10D220000020534908705348C089002801D1FFF7F6
:10D23000ADFF10BD70B505460020C0434A490880C7
:10D2400000204B4908704E48006802F0C7FF0446B2
:10D25000002C07D047488069002803D045488169E1
:10D260002046884770BD70B50546AC1D20884149F1
:10D27000C989884220D1208B02281DD100BF00BF60
:10D28000A17EE27E120211430846C107C90F0029A0
:10D2900002D0FFF77BFF0FE03948006802F09EFFE5
:10D2A0000646002E07D033488069002803D0314855
:10D2B00081693046884700BF70BD10B5044608221A
:10D2C000A11D304811F011FAFFF760FF10BD10B535
:10D2D00004462088102806D0112808D012280ED025
:10D2E000502810D107E02046FFF78FFF0CE02046C2
:10D2F000FFF7A0FF08E02046FFF7B5FF04E0204657
:10D30000FFF7DBFF00E000BF00BF10BD38B50446EB
:10D3100008222146134811F0E8F912487ADF054641
:10D32000002D1CD11748FFF7ABFE00280BD10120C0
:10D33000114908700B490C48008875DF054601202B
:10D340000B4908700BE00B484069002806D001200B
:10D350000090084841696846884700BF0025284674
:10D3600038BD0000242100202E210020FFFF0000F6
:10D370002C2100206C300020382100209FD001009B
:10D3800084E80200302100208A88828270470022CF
:10D39000D2438282704770B504460E46B51D298877
:10D3A000208A814213D1288B022810D100BF00BFF0
:10D3B000A97EEA7E120211430846C107C90F00295F
:10D3C00002D00120A0750FE00020A0750CE0288895
:10D3D000A188884208D1A069002805D02A8B294657
:10D3E0001A312046A369984770BD30B58FB0044606
:10D3F0000D460020079000BF6846007F0109090123
:10D40000491C68460177007FF02188431030694647
:10D41000087700BF00BF6846407F01090901491C29
:10D4200068464177407FF02188431030694648774D
:10D4300000BF6846807F06218843811C684681774B
:10D440001C2108A811F06AF908A800781021884367
:10D45000411808A80170002009900B900C9007A8B3
:10D460000D9000200E90217868468171C649818018
:10D470000020009000BF6846007801090901491C9E
:10D48000684601700078F0218843103069460870C2
:10D4900000BF00BF6846407801090901491C684681
:10D4A00041704078F021884310306946487000BFD1
:10D4B0006846807806218843811C684681708078A0
:10D4C000082188430146684681708078102188438E
:10D4D000014668468170807841084900491C6846C9
:10D4E0008170142102A811F019F901A80290684670
:10D4F00003900121018200214182142181826088F0
:10D5000023460C3302AA08A9A2DF0FB030BD30B504
:10D510008FB004460D461C2108A811F0FFF808A89A
:10D52000007808218843411808A801700078042178
:10D530008843011D08A80170002009900B900C90F1
:10D540000D900E902178684681728F4901810020EC
:10D55000019000BF6846007901090901491C68462D
:10D5600001710079F021884310306946087100BFCD
:10D5700000BF6846407901090901491C68464171AC
:10D580004079F021884310306946487100BF6846F1
:10D59000807906218843811C684681718079082141
:10D5A000884301466846817180791021884301468D
:10D5B00068468171807941084900491C684681713B
:10D5C000142103A811F0AAF802A8039001A804905E
:10D5D0000121684681820021C18214210183608873
:10D5E000231D03AA08A9A2DF0FB030BD70B5054600
:10D5F0000C46002D01D0002C00D170BD20881028D1
:10D6000004D0112807D050280FD109E02146284620
:10D61000FFF7BAFE0AE021462846FFF7B8FE05E00C
:10D6200021462846FFF7B7FE00E000BF00BF00BF5D
:10D63000E3E770B58EB004460E46544908460DC85F
:10D64000C96809AD0DC50C91002C01D0002E02D186
:10D650000E200EB070BD0020C043A0823068A061D3
:10D660000020A075214609A863DF0546002D01D0E2
:10D670002846EEE7217808A88175434968468186E7
:10D68000A21C0DA90120A0DF0546002D01D02846CF
:10D69000DFE73E4B10330FCB089305AB07C3002CDD
:10D6A00001D0002E01D10E20D3E70020C043A0827C
:10D6B0003068A0610020A075214605A863DF0546FB
:10D6C000002D01D02846C4E7217808A881752E498D
:10D6D0006846818631462046FFF787FE0546002DC5
:10D6E00001D02846B5E7294B20330FCB049301AB7B
:10D6F00007C3002C01D0002E01D10E20A9E7002085
:10D70000C043A0823068A0610020A075214601A816
:10D7100063DF0546002D01D028469AE731462046B2
:10D72000FFF7F5FE0546002D01D0284691E70020C1
:10D730008FE737B584B004460D46002C02D10E2089
:10D7400007B030BDA08A1249884202D0A07D0028CF
:10D7500001D10820F4E76846008B142801DD07207A
:10D76000EEE700200090019002900390A1896846A6
:10D770000180039506A80290012168468170A08A65
:10D780006946A6DFDCE700004353000088E802009A
:10D79000FFFF000001B505E00098401E009003481F
:10D7A000FAF798FC00980028F6D108BDE7030000BE
:10D7B00070B504460D462946204600F011F800BF1A
:10D7C000E106C90E012088402149086000BF00BF62
:10D7D000E106C90E012088401E49086000BF70BDE7
:10D7E00010B5002819DA1C4A03071B0F083B9B08D9
:10D7F0009B00D2588307DC0EFF23A3409A438B077C
:10D800001B0E8407E40EA3401A43134B0407240F96
:10D81000083CA408A4001A5118E00E4A03231B0276
:10D82000D21883089B00D2588307DC0EFF23A34045
:10D830009A438B071B0E8407E40EA3401A43054B43
:10D84000032424021B198408A4001A5110BD0000EF
:10D8500080E200E000E100E01CED00E0F0B5059C96
:10D8600055000D439E00354326023543069E36047F
:10D8700035430526360707273F02F6198700F5517D
:10D88000F0BD10B50522120707231B02D218830032
:10D89000D25803231B049A4305231B0707242402A1
:10D8A0001B1984001A510522120707231B02D218E4
:10D8B0008300D2580B041A4305231B0707242402B4
:10D8C0001B1984001A5110BD0146FE48405600281D
:10D8D00005DBFC484056042801DA0120704700208F
:10D8E000FCE7F7B585B00B460020C0430490002A42
:10D8F00001D0002000E004200390002A01D0042081
:10D9000000E00920029003991FE08800ED4C243CC0
:10D910002058401C002817D10846059C009301920E
:10D9200046B2E84D2E558500E64E243E009B7351CD
:10D93000019A002A04D166B2051FE24F20377E55B6
:10D9400000BF48B2049003E0491C02988142DCD336
:10D9500000BF049808B0F0BD0021C9438200D94B34
:10D96000243B9950042804DB0B46011FD54A203282
:10D970005354704710B5D3481C30407A002801D06A
:10D98000082010BD002404E0204600F0B9FB601C14
:10D99000C4B2202CF8DB002404E02046FFF7DCFFB3
:10D9A000601CC4B2092CF8DB03210620FFF700FF3E
:10D9B0000120C00700F060FB0121C2481C30417209
:10D9C0000020DEE7BF481C30407A002801D001204B
:10D9D00070470020FCE770B50546284600F06DFB57
:10D9E000002804D000212846FFF74BFF1EE0284600
:10D9F000FFF76AFF002819D0284600F086FB04468E
:10DA00002046B149512212018918820089584908DB
:10DA10004900AD4A51231B01D2188300D15000BFE9
:10DA20000120A040A949886000BF00BF70BD70B54B
:10DA300004462046FFF7CFFF2046FFF745FF0028AA
:10DA400005D0204600F061FB054600F018FB20469B
:10DA500000F01DFB204600F058FBC5B22846FFF73A
:10DA60007BFF204600F04CFB70BD70B5044620469D
:10DA7000FFF72AFF00280CD0204600F046FBC5B275
:10DA80002846FFF769FF204600F03FFB054600F0FF
:10DA9000F6FA204600F034FB204600F0F8FA70BD9C
:10DAA00010B5002417E0204686490956891C002934
:10DAB00001D1012100E00021002903D02046FFF719
:10DAC000D4FF07E0204600F002FB002802D02046E9
:10DAD000FFF7ADFF641C202CE5D3002179481C30F2
