:020000040001F9
:10800000E83E002005BF01001FBF010021BF0100A5
:108010000000000000000000000000000000000060
:1080200000000000000000000000000023BF01006D
:10803000000000000000000025BF010027BF010074
:1080400029BF010029BF01008BE3010029BF010006
:1080500029BF010000000000ADDD010029BF0100C3
:1080600029BF010029BF0100C762020029BF01002A
:1080700029BF010029BF010029BF010029BF01005C
:1080800029BF010043FF010029BF010029BF0100F2
:1080900065FF010029BF01005503020029BF01004F
:1080A00029BF010029BF01000000000000000000FE
:1080B00000000000000000000000000000000000C0
:1080C0000348854616F06EFA004800477BAE010073
:1080D000E83E0020401E00BF00BF00BF00BF00BF41
:1080E00000BF00BF00BF00BF00BF00BF00BFF1D195
:1080F00070470000401E00BF00BF00BF00BF00BFB0
:1081000000BF00BF00BF00BF00BF00BF00BFF1D174
:1081100070470000401E00BF00BF00BF00BF00BF8F
:1081200000BF00BF00BF00BF00BF00BF00BFF1D154
:1081300070470000401E00BF00BF00BF00BF00BF6F
:1081400000BF00BF00BF00BF00BF00BF00BFF1D134
:1081500070470000401E00BF00BF00BF00BF00BF4F
:1081600000BF00BF00BF00BF00BF00BF00BFF1D114
:1081700070470000401E00BF00BF00BF00BF00BF2F
:1081800000BF00BF00BF00BF00BF00BF00BFF1D1F4
:1081900070470000401E00BF00BF00BF00BF00BF0F
:1081A00000BF00BF00BF00BF00BF00BF00BFF1D1D4
:1081B00070470000401E00BF00BF00BF00BF00BFEF
:1081C00000BF00BF00BF00BF00BF00BF00BFF1D1B4
:1081D00070470000401E00BF00BF00BF00BF00BFCF
:1081E00000BF00BF00BF00BF00BF00BF00BFF1D194
:1081F00070470000F8B5002216461746009273003B
:1082000013438C0023433C022343009C2404234358
:108210000524240707252D0264198500635100BF3A
:10822000F8BD70B504460D462A462146FB4807F0C6
:108230001DFB70BD3EB500BF68460078010909010D
:10824000491C009168460078F02188431030009066
:1082500000BFF34816F07DF985B22A46F04968461A
:108260007CDF044600BF2546002D06D000BF00225B
:108270001146284607F0FAFA00BF00BF002001901F
:1082800002900C21684681801021C180002101816B
:10829000C821418101A87ADF044600BF2546002D90
:1082A00006D000BF00221146284607F0DFFA00BFC3
:1082B00000BF3EBDF8B505460E460120D9490870FD
:1082C00032462946D84805F0A2F90446082C0BD0BE
:1082D00000BF2746002F06D000BF002211463846B7
:1082E00007F0C4FA00BF00BF1E2005F0C1F901204D
:1082F000F8BD70B506460C461546CC4800780028F7
:1083000003D1E9B2204610F00AFD70BD38B5002057
:108310000090C74800906946C34805F0F8F8044645
:1083200000BF2546002D06D000BF0022114628467A
:1083300007F09CFA00BF00BF38BD70B5054628782D
:10834000002810D13B21BB48008876DF044600BFDF
:108350002646002E06D000BF00221146304607F008
:1083600085FA00BF00BF70BD70B53B21B1480088E1
:1083700076DF044600BF2546002D06D000BF002250
:108380001146284607F072FA00BF00BF70BD10B555
:10839000044600BF00221146204607F067FA00BFDE
:1083A00010BD30B587B01C21684616F0C7F8002014
:1083B00000900520C00301900F20000402900721C7
:1083C000684601730021C18101749B4805909B4858
:1083D0000690684604F015FE044600BF2546002DB1
:1083E00006D000BF00221146284607F03FFA00BF22
:1083F00000BF07B030BD70B5002003F0E9FB0446B4
:1084000000BF2546002D06D000BF00221146284699
:1084100007F02CFA00BF00BF03F008FD044600BFC0
:108420002546002D06D000BF00221146284607F041
:108430001DFA00BF00BF3CDF044600BF2546002DEB
:1084400006D000BF00221146284607F00FFA00BFF1
:1084500000BF70BD70B50546002D12D0032D13D19D
:10846000022003F0B5FB044600BF2646002E06D0CE
:1084700000BF00221146304607F0F8F900BF00BFE8
:1084800003E0FFF7B8FF00E000BF00BF70BD70B5AC
:1084900005462888112828D004DC012869D0102836
:1084A0006BD104E013283CD0522866D14DE0072060
:1084B00003F08EFB044600BF2646002E06D000BF08
:1084C00000221146304607F0D1F900BF00BFA8884E
:1084D0005849088001205A490870002059490870FD
:1084E000594908805949087048E0002003F070FBA2
:1084F000044600BF2646002E06D000BF00221146CB
:10850000304607F0B3F900BF00BF0020C04349491F
:10851000088000204A4908704B4908804B49087080
:108520002CE000231A468521424800887FDF04465C
:1085300000BF2646002E06D000BF0022114630465E
:1085400007F094F900BF00BF18E000231A4619464F
:1085500038480088A9DF044600BF2646002E06D012
:1085600000BF00221146304607F080F900BF00BF6F
:1085700004E000202B49087000BF00BF00BF70BDA1
:1085800010B50446204604F010FE2146264804F0AB
:108590009BFF2046FFF77BFF204604F0BEFB2046F2
:1085A00003F053FC10BD7CB500BF002348222849CE
:1085B0000E2007F087FE054600BF2E46002E06D08F
:1085C00000BF00221146304607F050F900BF00BF3F
:1085D00000BF00200090019069460870684660DF87
:1085E000044600BF2546002D06D000BF00221146DC
:1085F000284607F03BF900BF00BF164807F098FE79
:10860000044600BF2546002D06D000BF00221146BB
:10861000284607F02BF900BF00BF7CBDEFBEADDEE2
:10862000002000202820002090220020F42100209B
:10863000F38201001C2000203B8301008F83010096
:10864000292000202A200020F2210020F0210020F3
:108650005C2B00208185010010B5FE4800780028C1
:1086600032D108F001F912F0E7FE13F02DF80024E2
:1086700014F009F9092003F04CFAFF20F53004F05A
:10868000F7FF13F041FA0446F348046014F002F9CE
:10869000092003F043FA082003F040FA642004F0B4
:1086A000E7FF13F031FA0446EC48046013F00CF8CD
:1086B00008F0DEF8E8480068002805D0E7480068C0
:1086C000002801D0012010BD0020FCE710B5E148D2
:1086D000007800281BD108F0C7F812F0ADFE12F0A8
:1086E000F3FF092003F01AFA082003F017FA6420B8
:1086F00004F0BEFF13F008FA0446D848046012F0F4
:10870000E3FF08F0B5F8002C01D0204610BDD34897
:108710000068FBE7704710B5D1480078002870DD8D
:10872000D048007804287FD1CF48007801287BD139
:10873000CE480078012877D1CD480078012873D140
:10874000C74800780007000F012805D0C44800780A
:108750000007000F02282AD108F086F8C5480268F1
:10876000C5480168C148401C0BF01EFAC349087097
:1087700007F0E8FE08F07CF8C0480078002809D02F
:1087800009200DF041FF0222BC480178012010F0C1
:1087900092FB08E00A200DF037FF0022B74801786D
:1087A000022010F088FB0020AD49087036E0AC488C
:1087B00000780007000F032805D0A94800780007BB
:1087C000000F04282AD108F04FF8AA480268AA48E6
:1087D0000168A648401C0BF012FCA849087007F07D
:1087E000B1FE08F045F8A548007800280AD0092015
:1087F0000DF00AFF0222A1480178012010F05BFB76
:1088000009E011E00A200DF0FFFE00229B480178EC
:10881000022010F050FB0020914908709848007821
:10882000401C974908709FE08D48007800287FDD44
:108830008C48007804287BD18C480078022877D1B6
:108840008B480078012873D18D480078401C8C49F2
:108850000870834800780007000F012805D0804881
:1088600000780007000F02282AD107F0FDFF814899
:108870000268814801687D48401C0BF0E5FD7F4996
:10888000087007F05FFE07F0F3FF7C4800780028CF
:1088900009D009200DF0B8FE0322784801780120A4
:1088A00010F009FB08E00A200DF0AEFE002273482C
:1088B0000178022010F0FFFA00206949087053E0A7
:1088C000674800780007000F032805D06448007847
:1088D0000007000F042847D107F0C6FF654802686B
:1088E000654801686148401C0BF0E5FF634908706A
:1088F00007F028FE07F0BCFF6048007800280AD087
:1089000009200DF081FE04225C480178012010F05E
:10891000D2FA09E00CE00A200DF076FE002257485A
:108920000178022010F0C7FA00204D4908701BE0C2
:1089300053480078052812DD002051490870484945
:1089400008704B48007801280ED14948007801286A
:108950000AD100221146022010F0ADFA04E0484886
:108960000078401C4649087010BD30B5A7B03821CA
:1089700019A815F0E3FD022118A8017100218171E9
:108980000621C17138210BA815F0D8FD01216846D8
:1089900081873C491091242102A815F0CFFD0121C7
:1089A0006846017564200690C0000390002007907F
:1089B000354B02AA0BA9009019A803F06DFF0446DD
:1089C00000BF2546002D06D000BF002211462846D4
:1089D00006F04CFF00BF00BF27B030BD70B52B487C
:1089E0000078002874D11B480078002870D100223C
:1089F00027492848006807F036FB044600BF254693
:108A0000002D06D000BF00221146284606F02EFF9A
:108A100000BF00BF0F48007800281AD1092003F0DA
:108A200078F813F0A6FF07F01FFF12F04DFE12F0CA
:108A300003FD0949098888B213F0C8F808200949DC
:108A400008707D20C00004F013FE12F0F5FC07F062
:108A50000FFF21E0B82100202C2000203020002032
:108A60000822002039200020682A0020D03400206D
:108A700029200020102200200C2200205F2000204E
:108A8000602000201E20002055840100632000206B
:108A90003303000044E60200FE480078002817D1A6
:108AA0004120FD49887074DFFFF7C4FBFFF75DFFCD
:108AB000032003F08FFF044600BF2546002D06D09B
:108AC00000BF00221146284606F0D0FE00BF00BFBE
:108AD0000020F249088070BD7CB5F148007800287C
:108AE00001D1EE490880EE480078002865D103F0F6
:108AF0001AF8002861D1EB48007800285DD1EA48D7
:108B00000078002859D1E9480078002855D1E84874
:108B10000078002851D10022E649E748006807F0B4
:108B2000A2FA044600BF2546002D06D000BF002251
:108B30001146284606F09AFE00BF00BFD9480078CB
:108B400000281ED1092002F0E4FF092002F0E1FF15
:108B500013F00FFF07F088FE12F0B6FD12F06CFC68
:108B6000D649098888B213F031F80820D449087032
:108B7000642004F07DFD12F05FFC13F084FE07F02A
:108B800077FEC448007800281AD14120C249887075
:108B900074DFFFF74FFBFFF7E8FE032003F01AFF37
:108BA000044600BF2546002D06D000BF0022114616
:108BB000284606F05BFE00BF02E0002002F0B3FF93
:108BC000062002F0B0FF00283ED1B7480078002808
:108BD0003AD1FFF703FF092002F0A0FF082002F0BE
:108BE00098FF142004F044FD082002F097FF0920AC
:108BF00002F094FFAA480078002802D0092002F071
:108C000088FF062002F08FFF00281DD1AD480078B4
:108C1000012819DAA6480078002815D10120A949B1
:108C200008700022A849A948006807F01CFA044609
:108C300000BF2546002D06D000BF00221146284661
:108C400006F014FE00BF00BF102002F06CFF0028E9
:108C50007CD094480078002878D193480078002888
:108C6000FAD107F001FE132011F06AFD984908704F
:108C70000846007800286AD1102002F054FF00282E
:108C800065D08F4800780828F5D112F0D9FFFF2071
:108C9000904908709049087013F0C0F9002807D077
:108CA00013F0F7FB002803D013F0BFFA00287DD1A2
:108CB000002004E00021894A1154411CC8B28849AF
:108CC00009788842F6DB84480078012803D1042023
:108CD0008249487106E080480078022802D10820C5
:108CE0007E494871002007E07B4A411C525C7B4B67
:108CF000811D5A54411CC8B2784949798142F3DC3C
:108D000004206F4908707448007801287ED108F06B
:108D100081F911F005F9012838D17248007801284D
:108D200034D1092002F0F5FE002004E0FF21694A59
:108D30001154411CC8B28028F8D30DF010FA6A48CB
:108D40000078012804D0022811D109E0D7E3CBE351
:108D50006648FF2104310268002009F072FF0DE02F
:108D6000624863490268002009F06BFF06E05F4833
:108D700003210268002009F064FF00BF00BF07F074
:108D800077FDFFF72BFE07F06FFD84E35248401C90
:108D90000CF0FDFA5749086008460068002875D0B5
:108DA00055480078002871D1084600E085E3006846
:108DB000012109060840002805D14E4800684900F5
:108DC00008400028EBD0334800780128EBD107F0A9
:108DD000EDFF44480078012859D1484800784849B7
:108DE000097800910190474803784748027847483E
:108DF0000178474800787D252D01401910F050F981
:108E00003A49086043480078012800E08EE103D029
:108E10004048007802283BD13E4840783E490860EF
:108E200008460068000208603A48807809680843EC
:108E30003949086008460068000208603548C07873
:108E40000968084334490860084600680002086061
:108E500030480079096808432F4908602D48407957
:108E60002E49086008460068000208602948807999
:108E7000096808432949086008460068000208603C
:108E80002448C07909680843244949E020E1FEE00C
:108E9000DFE00000CE210020002000206420002020
:108EA00063200020B8210020502200204D22002005
:108EB0004C2200203303000044E602002C20002056
:108EC0003920002034200020CD0C000048E60200AC
:108ED00029220020682A0020D0340020E632002019
:108EE00031E70200BB210020552000204C2000204B
:108EF000030200003C20002008220020BC210020AA
:108F0000BD210020BE210020BF210020C021002063
:108F1000C1210020003300204020002044200020F8
:108F200008600846006800020860FA48007A09688C
:108F30000843F949086003210520FFF75BF9012088
:108F400004F096FB052002F0EEFD00280AD1F1485E
:108F50000078022806D111200DF056FB4B200001AD
:108F600004F086FBED480068EB490968884209D2A5
:108F7000EA480068EA490968884203D9E548007868
:108F8000012814D0E5480068E3490968884235D2D1
:108F9000E2480068E249096888422FD9DD48007834
:108FA00002282BD1052002F0BEFD012826D1092080
:108FB00002F0AFFD0DF0D3F8D6480078012802D0BA
:108FC000022813D109E0D749098888B2D3490A6831
:108FD000FF21033109F035FE08E0D249098888B243
:108FE000CE490A68D04909F02CFE00BF00BF07F047
:108FF0003FFCFFF7F3FC07F037FC25E0C54800789D
:10900000012808D0C348007802281DD1052002F0AD
:109010008AFD012818D110200DF0F6FA092002F07F
:109020007DFD082002F075FD1920400104F020FBB1
:10903000082002F073FD092002F06BFD07F018FC18
:10904000FFF7CCFC07F010FC01210520FFF7D2F858
:1090500021E2B64800780028FAD10A200DF0D4FAAF
:10906000092002F05BFD082002F053FD19204001A9
:1090700004F0FEFA082002F051FD092002F049FD3B
:1090800007F0F6FBFFF7AAFC07F0EEFB03E2102067
:109090000DF0BAFA092002F041FD082002F039FD76
:1090A0001920400104F0E4FA082002F037FD0920FD
:1090B00002F02FFDFF20F53004F0DAFA0A200DF05F
:1090C000A3FA07F0D5FBFFF789FC07F0CDFBE2E13F
:1090D0009748007800280BD1092002F01AFD0DF006
:1090E0003EF807F0C5FBFFF779FC07F0BDFBD2E1C6
:1090F0008E4800780028ABD10A200DF085FA0920AF
:1091000002F00CFD082002F004FD1920400104F0DB
:10911000AFFA082002F002FD092002F0FAFC07F085
:10912000A7FBFFF75BFC07F09FFBB4E181480078E9
:1091300002288DD107F03AFE7D48007801287DD1C4
:109140007C48401C0CF051FA7649086008460068DB
:10915000002874D075480078002870D1084600684F
:10916000032109060840002806D16E480068012145
:10917000890608400028ECD06F4800780128ECD11F
:109180006E4800786E490978009101906D48037827
:109190006D4802786D4801786D4800787D252D0175
:1091A00040190FF07DFF5D4908605A480078032898
:1091B00003D05848007804287ED156484078584952
:1091C0000860084600680002086052488078096814
:1091D00008435349086008460068000208604D488B
:1091E000C078096808434E490860084600680002D4
:1091F00008604848007909680843494908604548BB
:109200004079454908600846006800020860414806
:1092100080790968084340490860084600680002F0
:1092200008603C48C079096808433B490860084623
:109230000068000208603748007A01E012E1CEE0E1
:10924000096808433449086003210520FEF7D2FF6E
:10925000012004F00DFA052002F065FC00280AD177
:109260002C480078042806D111200DF0CDF94B20B0
:10927000000104F0FDF9294800682749096888427F
:1092800009D22648006826490968884203D921483E
:109290000078032816D0214800681F4909688842D1
:1092A00058D21E4800681E490968884252D9194898
:1092B000007804284ED100E077E0052002F033FC6E
:1092C000012847D1092002F024FC0CF048FF114886
:1092D0000078032802D0042813D109E01149098835
:1092E00088B20E490A68FF21033109F0AAFC08E0A0
:1092F0000C49098888B209490A680B4909F0A1FCA0
:1093000000BF00BF07F0B4FAFFF768FB07F0ACFA44
:1093100046E0000000330020442000204C200020C4
:10932000402000203C2000200202000008220020F3
:10933000CE210020D0340020BB210020BC21002001
:10934000BD210020BE210020BF210020C02100201F
:10935000C1210020FB480078032808D0F948007894
:1093600004281DD1052002F0DEFB012818D11020B1
:109370000DF04AF9092002F0D1FB082002F0C9FBE8
:109380001920400104F074F9082002F0C7FB0920FD
:1093900002F0BFFB07F06CFAFFF720FB07F064FA5E
:1093A00001210520FEF726FF75E00A200DF02CF9BB
:1093B000092002F0B3FB082002F0ABFB19204001AA
:1093C00004F056F9082002F0A9FB092002F0A1FBE5
:1093D00007F04EFAFFF702FB07F046FA5BE0DA48C7
:1093E0000078002820D110200DF00EF9092002F09D
:1093F00095FB082002F08DFB1920400104F038F99C
:10940000082002F08BFB092002F083FBFF20F530DF
:1094100004F02EF90A200DF0F7F807F029FAFFF70B
:10942000DDFA07F021FA36E0C8480078002832D18A
:109430000A200DF0E9F8092002F070FB082002F084
:1094400068FB1920400104F013F9082002F066FBC4
:10945000092002F05EFB07F00BFAFFF7BFFA07F0F6
:1094600003FA18E010200DF0CFF8092002F056FBA7
:10947000082002F04EFB1920400104F0F9F8082002
:1094800002F04CFB092002F044FB07F0F1F9FFF772
:10949000A5FA07F0E9F9FFF73EF9002004E0FF2103
:1094A000AB4A1154411CC8B28028F8D30022A94904
:1094B000A948006806F0D7FD1EE00420A7490870FF
:1094C0000022A449A448006806F0CDFDA448007815
:1094D000002805D1A3480068401CA24908600BE0A1
:1094E0000020A049086007E011F0A6FF9E48008810
:1094F00012F06CFB07F0BCF907F0BAF918E09B48D2
:109500000078012814D1102002F00DFB00280FD0A4
:109510009748007800280BD1012096490870002058
:109520008E49087000228B498B48006806F09BFD2D
:109530000D2002F0F8FA002805D18D4800780028A7
:1095400001D10CF00CFE7CBD10B5844800780028D9
:1095500006D0012836D0042835D0082830D130E094
:109560008248007800281ED18349088007F07CF9E2
:1095700012F0AAF811F060FF79480078002804D0B2
:109580007E4800887849088003E0FFF79FF8764915
:1095900008807548008812F019FB07F069F9082067
:1095A0006E4908700CE074480088401C72490880BD
:1095B00008460088322803DB0020088007F058F9AD
:1095C00051E050E04FE06948007800284AD16448F3
:1095D0000078002803D06A48006806F06DFD07F0A7
:1095E00043F95F480078002804D0644800885E4949
:1095F000088003E0634800885B4908805A48008877
:1096000012F035FB00280CD000205449087012F0ED
:109610005BF80020514908705B4908605B4908709D
:1096200004E05A480078401C5849087057480078B0
:1096300002280BDB0020554908704849087012F0D9
:1096400043F80020454908704F49086044480078B5
:10965000002805D000224E494948006806F003FD65
:1096600007F006F900BF00BF10BD30B5A7B0382124
:1096700019A814F063FF022118A80171002181715B
:109680000621C17138210BA814F058FF012168464A
:10969000818740491091242102A814F04FFF012135
:1096A000684601751920400106900390002007903C
:1096B000394B02AA0BA9009019A803F0EDF8044653
:1096C00000BF2546002D06D000BF002211462846C7
:1096D00006F0CCF800BF00BF27B030BD70B52F48F2
:1096E0000078002876D159202D490870462048700E
:1096F0001B480078002802D04120887002E04920F1
:10970000274988705F202649C870042404E000209F
:1097100023490855601CC4B21C2CF8D3002466E011
:109720000520001B1F490E5CF020304005462D111E
:109730000A2D39DA28463030C5B26000001D1849BC
:109740000D543BE000330020BB2100200822002004
:10975000682A0020CD0C000048E6020039200020D5
:10976000632000205020002036200020B821002057
:1097700050220020542000205C2000202C200020BB
:1097800044E602003020002058200020562000200F
:10979000330300001E20002055840100CE2100204C
:1097A000002000202220002028464130C5B2284653
:1097B0000A38C5B26000001DFE490D5435072D0F53
:1097C0000A2D08DA28463030C5B26000401DF9493C
:1097D0000D540AE012E028464130C5B228460A3846
:1097E000C5B26000401DF3490D54601CC4B2062C84
:1097F00096DBFEF71FFDFFF7B8F817E0002404E042
:109800000020EC490855601CC4B21C2CF8D300247D
:1098100006E0E949201D085CE6490855601CC4B211
:10982000182CF6DBFEF706FDFFF71FFF70BD10B525
:109830000446E2480078012818DB062002F073F99C
:10984000002813D1DE480078401CDD490870084626
:10985000007805280FDD00200870D8480078401CEB
:10986000D64908701D200CF0CFFE04E00020D3493B
:109870000870D3490870D148007806283ADD0020E6
:10988000CE49087006F0F0FF0021084606F08BFE76
:1098900007F07FFD07F061FF07F065FF0AF09AFB14
:1098A0000AF0BDFD0CF019F80CF02CF807F0BFFC25
:1098B00007F0B0FB06F046FE06F0DAFF092002F0E2
:1098C0002DF9082002F025F9FF20F53003F0D0FE35
:1098D000082002F023F9092002F020F9B9480078A5
:1098E000002802D0092002F014F904200CF08CFEAC
:1098F000FFF7F4FEFFF728FEB3480078082807D1E9
:10990000AE480078002803D1B048006806F0D4FBC8
:1099100010BD08B5002017231A2218210090192025
:109920000FF0A1FE0A2003F0A3FE0120A849087051
:1099300008BD38B5002017231A22182100901920DD
:109940000FF091FE0A2003F093FE0120A049087059
:109950000022A049A048006806F085FB044600BF2D
:109960002546002D06D000BF00221146284605F0EE
:109970007DFF00BF00BF38BD0020954908709749A2
:109980000860704730B5A7B0382119A814F0D6FD8B
:10999000022118A80171002181710621C1713821AD
:1099A0000BA814F0CBFD0121684681878C491091EA
:1099B000242102A814F0C2FD002168460175192077
:1099C0004001069000200790864B02AA0BA9009048
:1099D00019A802F061FF044600BF2546002D06D0FD
:1099E00000BF00221146284605F040FF00BF00BF1F
:1099F00027B030BDF8B505467B4AFF21493102202A
:109A000002F00FF9044600BF2646002E06D000BF24
:109A100000221146304605F029FF00BF00BF69460D
:109A2000002002F04FFA044600BF2646002E06D062
:109A300000BF00221146304605F018FF00BF00BFEE
:109A400068460078022801D1012000E0002028703B
:109A5000F8BD70B548DF044600BF2546002D06D08E
:109A600000BF00221146284605F000FF00BF00BFDE
:109A700070BD7CB5684671DF044600BF2546002DE9
:109A800006D000BF00221146284605F0EFFE00BFB9
:109A900000BF332069464870332168468170C17029
:109AA000017141716946002070DF044600BF254600
:109AB000002D06D000BF00221146284605F0D6FE34
:109AC00000BF00BF7CBD10B50446484800780028A0
:109AD0000DDD47480078401C45490870084600786D
:109AE0000A2807DD002008704049087002E00020C5
:109AF0003F4908703F480068002823D03E4800686E
:109B0000401C3D4908603D480068012801D1002003
:109B10000860394800683A49884216D90020364919
:109B2000086006F0A1FE322003F0A2FD0021022011
:109B300007F05BFD00202F49086006F003FD06F0EA
:109B400097FE02E000202C4908601E48007800289B
:109B500003D000202B49088012E000202A49088009
:109B600028480088401C2749088008460088FF21B3
:109B7000C331884204DD00202249088012F08AFEA9
:109B80000E48007802280CDD20480088401C1F4940
:109B9000088008460088012803DD00200880074966
:109BA00008701B480078012840D11A480078401CF2
:109BB000184931E0002000208232002034200020AB
:109BC00061200020632000203920002048E60200A8
:109BD000622000209A19000040E6020000250040A3
:109BE0001E20002055840100158701009B200020C5
:109BF00099200020D821002088200020D421002096
:109C0000B80B00007E20002064200020842000206B
:109C1000292000202A200020087008460078022809
:109C200007DD00200870FEF79FFB02E00020FE49E0
:109C30000870FE48006800282DD0FC4800680C28F9
:109C400003D20020F949086025E0F948007800288F
:109C500021D1F848007800281DD103E07D20C00004
:109C600003F006FDFEF7F8FC0028F7D006F0FCFD37
:109C700011F02AFD11F0E0FBEF49098888B211F0DC
:109C8000A5FF0820ED49087006F05CFC06F0F0FD29
:109C90000020E649086010BD70B5002001F043FFC8
:109CA000002816D112F0F4FD04460C2C11DC1D2006
:109CB0000CF0AAFC092001F02CFF082001F02EFF77
:109CC000C82003F0D5FC082001F028FF092001F08E
:109CD00020FF0A2C04D00B2C0FD00C2C18D116E02E
:109CE0000020D7490870002504E0FF20D5494855D9
:109CF000681CC5B2332DF8DB15E00021D04802788E
:109D00000078401CCE4B1870CE4881540BE00AE01E
:109D10000A2C07DACA4801780078401CC84A10703B
:109D2000C848445400BF00BF70BDFEB506460020C1
:109D3000C5490870C548007870430746C448007894
:109D400086427DD8C348027801A902A807F0F6FA36
:109D50000198C2B20298C1B23B46BF4807F0E1FB8E
:109D6000002593E000248DE02046B8490978484357
:109D70000B30B949085CB349495D88427ED1204621
:109D8000B249097848430C30B349095CAD4A681CB4
:109D9000105C814275D12046AC49097848430D30AA
:109DA000AD49095CA81C105C81426AD12046A749D4
:109DB000097848430E30A849095CE81C105C8142D0
:109DC0005FD12046A149097848430F30A249095C78
:109DD000281D105C814254D120469C490978484393
:109DE00010309D49095C681D105C814249D10020FA
:109DF00003E00021994A1154401C9949097888428E
:109E0000F7D3062095494871204690490978484380
:109E10000B309149085C9149887120468B4909783B
:109E200048430C308C49085C8C49C87120468749EE
:109E3000097848430D308849085C8849087200E079
:109E40002BE020468149097848430E308249085C5E
:109E50008249487220467D49097848430F307E493F
:109E6000085C7E498872204678490978484310305A
:109E70007949085C7949C872601C00E001E080B251
:109E8000FEBD641CB44200D26EE76D1C6C480078C5
:109E9000401FA84200D965E78AE16D48007840007C
:109EA000B042F9D36B48027801A902A807F046FA3C
:109EB00067480078654A1278504303460198C0B25B
:109EC00000900298C1B26448009A07F02AFB00256E
:109ED00092E000248AE020465C49097848430B3030
:109EE0005D49085C5749495D88427ED12046574903
:109EF000097848430C305849095C524A681C105C88
:109F0000814272D120465149097848430D30524967
:109F1000095CA81C105C814267D120464B49097836
:109F200048430E304C49095CE81C105C81425CD10E
:109F300020464649097848430F304749095C281DA7
:109F4000105C814251D12046404909784843103085
:109F50004149095C681D105C814246D1002003E044
:109F600000213E4A1154401C3D4909788842F7D3EC
:109F700006203A49487120463449097848430B3055
:109F80003549085C3549887120463049097848438D
:109F90000C303149085C3149C87120462B49097899
:109FA00048430D302C49085C2C490872204627494B
:109FB000097848430E302849085C284948722046F1
:109FC0002249097848430F302349085C23498872A5
:109FD00020461E490978484310301F49085C1F4934
:109FE000C872601C80B24BE7FFE7641C1848007819
:109FF000844200D26FE76D1C11480078401FA842D0
:10A0000000D966E71748027801A902A807F096F977
:10A010000F4800780D49097848433B1A0198C2B2AD
:10A020000298C0B201461FE02A20002050200020E4
:10A03000B82100206320002030200020392000209B
:10A040009A200020E82A0020A420002030E7020007
:10A0500069E7020032E70200AC220020E63200206D
:10A0600031E7020033E702000090FE4807F059FA9A
:10A07000002597E000248EE02046FB4909784843FC
:10A080000B30F849085CF949495D88427ED1204689
:10A09000F549097848430C30F249095CF34A681CD9
:10A0A000105C814276D12046EF49097848430D3053
:10A0B000EC49095CA81C105C81426BD12046EA493E
:10A0C000097848430E30E749095CE81C105C81427E
:10A0D00060D12046E449097848430F30E149095CE2
:10A0E000281D105C814255D12046DF49097848433C
:10A0F0001030DC49095C681D105C81424AD10020A7
:10A1000003E00021DA4A1154401CDA4909788842F8
:10A11000F7D30620D64948712046D34909784843E9
:10A120000B30D049085CD24988712046CE49097865
:10A1300048430C30CB49085CCD49C8712046CA4918
:10A14000097848430D30C749085CC9490872204660
:10A15000C549097848430E30C249085CC449487271
:10A160002046C149097848430F30BE49085CC049C0
:10A1700088722046BC49097848431030B949085CC8
:10A18000BB49C872BC480078241800E002E0601C9B
:10A1900080B275E6641CB8480078301AA04200D33B
:10A1A0006AE76D1CB5480078401FA84200D961E7F6
:10A1B000002065E6F0B585B00025ED4306F054FBC0
:10A1C00006F028FF06F0BEF906F052FBAC48007816
:10A1D000002843D1A9480078032838DDA348007837
:10A1E00001281DD1A1484078022819D19F488078C4
:10A1F000032815D19D48C078042811D19B480079C7
:10A2000005280DD199484079062809D19B48007846
:10A21000062805D10BF0A3FF00209849087069E3D8
:10A22000002096490870092001F078FC082001F010
:10A2300070FC05200CF0E8F91920400103F018FA31
:10A24000082001F06BFC092001F063FC52E331208F
:10A250000CF0DAF90020894908704BE3884800784F
:10A260000128DCD106F0A2FD84480078032876DDC1
:10A2700084480078012873D18048007805286FDD74
:10A2800081480078814909780091019080480378DD
:10A290008048027880480178804800787D273F0117
:10A2A000C0190EF0FDFE7E49086006F0DDFA06F0EA
:10A2B000B1FE012007F05DFA039000240398FFF738
:10A2C00034FD0446002C7DD1754801686B48007848
:10A2D00009F08FF80028F6D16848007809F0A3FA51
:10A2E0000028F0D16E4801686448007809F037F919
:10A2F0000028E8D106F05AFD6348007863490978E0
:10A3000000910190624803786248027862480178BF
:10A3100062480078C0190EF0C3FE61490860E1216F
:10A3200009015F48006814F033F85D49086006F0E1
:10A330009BFA002551480078062812DB4F48007828
:10A3400009280EDC5748007801280AD054480268D2
:10A350004A48017845480FF009FC054606E0C3E28B
:10A360005EE250480078012800D1002500204D49C8
:10A370000870002D07D00295029D280E02900298C9
:10A3800002902D022D0A03210520FDF733FF012045
:10A3900003F06EF9052001F0C6FB002808D1002D5E
:10A3A00006D011200CF030F94B20000103F060F9C9
:10A3B000002D1FD0052001F0B6FB01281AD1062D73
:10A3C0001BD100E0FCE02D480078082815D109F0E9
:10A3D000A3FA01280FD132480068E121090148435E
:10A3E00002460021084608F02CFC0BF0B8FE0020C5
:10A3F0002D490870B2E00025B0E0082D66D11F4855
:10A400000078082862D1002004E00021184A115485
:10A41000411CC8B2174909788842F6DB0820144964
:10A42000487112480078887110484078C8710F4808
:10A43000807808720D48C07848720C48007988729C
:10A440000A484079C8720948807908730748C0797A
:10A4500048730023DB43094802780449022008F0CE
:10A4600039FF23E0AC22002030E70200E82A002078
:10A47000E632002031E7020069E702009A2000205E
:10A48000CE210020BB210020BC210020BD210020C6
:10A49000BE210020BF210020C0210020C1210020BA
:10A4A0004C200020D02100209B200020FE48006886
:10A4B000E1210901484302460021084608F0C1FB9A
:10A4C0000BF04DFE0020F949087047E002988542E4
:10A4D00041D90298A8423AD2002004E00021F44A6F
:10A4E0001154411CC8B2F34909788842F6DBF2489E
:10A4F0000078EF494871002006E0F0490A5C811DB0
:10A50000EB4B5A54411CC8B2EB4909788842F4DB42
:10A51000E54801680298081A4019E12109014843F9
:10A520000346E5480278E549022008F057FEDE4878
:10A530000068E1210901484302460021084608F06D
:10A5400080FB0BF00CFE0020D849087006E00020CC
:10A550000290002502E00020029000250121052044
:10A56000FDF748FE002D20D1092001F0D7FA082080
:10A5700001F0CFFACD480078401CCC49087008465D
:10A580000078042803D11C200CF03EF802E00520DE
:10A590000CF03AF81920400103F06AF8082001F0A5
:10A5A000BDFA092001F0B5FA05E0681C002802D1C7
:10A5B00031200CF029F805F0C5FF06F059F96EE1DD
:10A5C000002C7DD0641EBE480078844202D3BC4873
:10A5D0000078241A00262046BA4909784843C01C4E
:10A5E000B949085C064336022046B6490978484313
:10A5F000001DB549085C064336022046B14909787A
:10A600004843401DB049085C064336022046AD4928
:10A6100009784843801DAC49085C0643002004903B
:10A620002046A84909784843C01DA749085C0499F9
:10A63000084304900498000204902046A149097838
:10A6400048430830A049085C0499084304900498E2
:10A650000002049020469B490978484309309A49F2
:10A66000085C049908430490049800020490204672
:10A670009449097848430A309349085C049908438F
:10A68000049089480068B0427ED9874801680498E0
:10A6900081427DD220468B4909784843801C8A49F3
:10A6A000085C222841D103210520FDF7A3FD0120EC
:10A6B00002F0DEFF052001F036FA002809D100E0A3
:10A6C00087E011200BF0A0FF4B20000102F0D0FF2B
:10A6D00026E07E4800787E490978009101907D4807
:10A6E00003787D4802787D4801787D4800787D2791
:10A6F0003F01C0190EF0D4FC6B4908602146714A35
:10A70000127851431131704A505C67490A6801213F
:10A71000490208F096FA0BF022FD00206349087008
:10A7200001210520FDF766FD75E0204665490978A1
:10A730004843801C6449085C12286CD16348007847
:10A740006349097800910190624803786248027871
:10A7500062480178624800787D273F01C0190EF0F9
:10A760009FFC514908602146564A127851431131E5
:10A77000554A505C4C490A68FF21013108F061FAE2
:10A780000BF0EDFC002000E002E04849087042E0D8
:10A7900046480078401C454908700846007804285F
:10A7A00003D11C200BF030FF02E00F200BF02CFF38
:10A7B000092001F0B3F9082001F0ABF9192040019C
:10A7C00002F056FF082001F0A9F9092001F0A1F9D3
:10A7D00021E0002C1FD13D4800783D4909780091C7
:10A7E00001903C4803783C4802783C4801783C485A
:10A7F00000787D273F01C0190EF052FC2A490860FD
:10A80000084600210268084608F01BFA0BF0A7FC76
:10A8100000202649087005F095FE06F029F83EE074
:10A820003048007800281AD10F200BF0EDFE0920E7
:10A8300001F074F9082001F06CF91920400102F0D0
:10A8400017FF082001F06AF9092001F062F9FF20E2
:10A85000F53002F00DFF0A200BF0D6FE1FE00920B4
:10A8600001F05CF9082001F054F910480078401C10
:10A870000E49087008460078042803D11C200BF00C
:10A88000C3FE02E005200BF0BFFE1920400102F0DC
:10A89000EFFE082001F042F9092001F03AF900200A
:10A8A0000549087026E000004C2000209B20002075
:10A8B000E632002031E702009A200020E82A00203A
:10A8C00069E7020030E70200AC220020BC21002032
:10A8D000BD210020BE210020BF210020C02100207A
:10A8E000C1210020BB21002031200BF08DFE002073
:10A8F000F949087005B0F0BD70B50646F748007814
:10A9000000281DDDF6480068401CF549086008462F
:10A910000068FF219131884215D90020EF49087065
:10A92000EF490860EF48007801280CD10A200BF0AD
:10A930006BFE0022EC48017802200EF0BCFA02E027
:10A940000020E7490860E948007800287ED0E84800
:10A95000007806287ADAE748006805F0ADFBFF25A5
:10A9600012F081F805460C2D04DC0A2D02D01D20C2
:10A970000BF04AFE0A2D04D00B2D1CD00C2D27D134
:10A9800023E031200BF040FE082001F0C2F8FF2048
:10A990002D3002F06DFE082001F0C0F80020CE49F5
:10A9A0000870002404E0FF20D3490855601CC4B29D
:10A9B000332CF8DB17E00021C74802780078401CF0
:10A9C000C54B1870CC4881540DE0FFF7F3FB0AE04B
:10A9D0000A2D07DAC04801780078401CBE4A107082
:10A9E000C548455400BF00BFBB48007833280EDB84
:10A9F0000020B9490870002404E0FF20BE49085532
:10AA0000601CC4B2332CF8DB31200BF0FDFD0020BC
:10AA1000BA490880BA480088401CB9490880B9483A
:10AA20000078002802D0FF2091300880B6480078D6
:10AA3000012805D1B2480088FF21913188420FDA00
:10AA4000B148007800284DD1AD4800E051E00088C1
:10AA50004B21C900884245DBA2480078002841D13B
:10AA60009E48007800283DD10022A849A1480068EE
:10AA700005F0F9FA0020A249088011F00BFF00242C
:10AA800004E0FF209C490855601CC4B2332CF8DB5D
:10AA90000020914908709748006805F00DFB0920D7
:10AAA00001F03CF8082001F039F8994800780028B6
:10AAB0000FD105F0D9FE10F007FE10F0BDFC95494E
:10AAC000098888B211F082F808209349087005F0CF
:10AAD000CFFE8D480078002801D1FEF7FFFD01F080
:10AAE000CDF85AE0002289498248006805F0BBFA97
:10AAF00053E07F480078062834DB7E48006805F084
:10AB0000DBFA092001F00AF8082001F007F8834871
:10AB10000068401C8149086011F0BCFE7F48006855
:10AB20007F4988420CD311F024FF00207B49086044
:10AB30006F490870082000F0F1FF092000F0E9FFDC
:10AB4000002000F0F0FF002805D111F08CFF054631
:10AB5000642002F08DFD00226C496648006805F013
:10AB600082FA1AE000206649088011F08AFE00246B
:10AB700004E0FF2060490855601CC4B2332CF8DBA8
:10AB80000020554908705B48006805F095FA0920D7
:10AB900000F0C4FF082000F0C1FF70BD10B5102008
:10ABA00000F0C1FF002801D1012010BD0020FCE70A
:10ABB00010B505F059FE11F03CFD0E2000F0A9FF84
:10ABC00005F056FE10BD10B553480078002809D195
:10ABD00010F032FC5348008810F0F8FF08204E496E
:10ABE000087054E04C480078082821D14E4800787D
:10ABF000002819D013200FF0A3FD4C490870084617
:10AC0000007800280AD1102000F08DFF002805D020
:10AC100011F016F801204049087038E010F00CFCE3
:10AC200000203D49087032E000203B4908702EE0CA
:10AC300039480078012813D111F0F0F9002803D029
:10AC400011F027FC002803D10420334908701EE0CE
:10AC500010F05AFF3349088000202F49087016E091
:10AC60002D480078042812D1FF202D3011F0A8FCC7
:10AC70002C48008810F0FBFF002808D0002026494F
:10AC80000870FF202D3011F09BFC10F01DFD10BD51
:10AC900005F0EAFD11F0CDFC0E2000F03AFF10F0B7
:10ACA00033FF2049088010F0C7FB96E01A4800786F
:10ACB00000283DD110F0C0FB1A48008810F086FF34
:10ACC00008201549087000BFFFF768FF0028FBD176
:10ACD00001201549087080E09A20002008220020F9
:10ACE000A0200020292000205F20002063200020D9
:10ACF0009B20002044E60200E82A00207E2000205D
:10AD0000642000204D220020CE21002033030000CB
:10AD1000B821002030200020392000209C20002075
:10AD200060EA000036200020382000202922002080
:10AD3000FE480078082821D1FD480078002819D065
:10AD400013200FF0FDFCFB4908700846007800282E
:10AD50000AD1102000F0E7FE002805D010F070FFA7
:10AD60000120F249087038E010F066FB0020EF493E
:10AD7000087032E00020ED4908702EE0EB480078C2
:10AD8000012813D111F04AF9002803D011F081FBFA
:10AD9000002803D10420E54908701EE010F0B4FE3D
:10ADA000E54908800020E149087016E0DF48007896
:10ADB000042812D1FF202D3011F002FCDE4800885B
:10ADC00010F055FF002808D00020D8490870FF2057
:10ADD0002D3011F0F5FB10F077FC67E710B50E2071
:10ADE00000F097FE10F028FB0E2000F097FE10BD3B
:10ADF00010B50446D1480068401CD0490860D048CE
:10AE00000078002801D1CF480860CC480068192894
:10AE10000ED90020C9490860CB490870CB49087099
:10AE2000FEF7AAFD12F082FBC948006805F044F95C
:10AE300010BD10B5C748007801280FD1C64800687A
:10AE4000401CC549086008460068C449884205D9C5
:10AE50000020C149086014200BF0D6FB0D2000F043
:10AE600062FE012805D10020BA490870BA4908607D
:10AE700002E00120B749087010BD0EB50120B849A5
:10AE800088630020B74908600BF01EFA0BF0DCFC69
:10AE9000642002F0EDFBB448006AB4490860012068
:10AEA0000007406EB249086006F0E1F80BF0DBFCE9
:10AEB0000020B0490870002503E0FF20AE49485546
:10AEC0006D1C332DF9D300BF0023AC4A0B2118466B
:10AED00005F04CF8064600BF3746002F06D000BFED
:10AEE00000221146384604F0C1FC00BF00BF00BF7D
:10AEF0006846FEF77FFDFDF756FBFDF79BF9FDF772
:10AF000005FAFEF7B2FBFDF74CFA032001F062FDF3
:10AF1000044600BF2646002E06D000BF0022114680
:10AF2000304604F0A3FC00BF00BF042077DF944A42
:10AF30000121944805F068F8044600BF2646002E1B
:10AF400006D000BF00221146304604F08FFC00BF3F
:10AF500000BF00220F2109048A48006805F083F829
:10AF6000044600BF2646002E06D000BF0022114630
:10AF7000304604F07BFC00BF00BF834A01218348B8
:10AF800005F042F8044600BF2646002E06D000BF5A
:10AF900000221146304604F069FC00BF00BF7C4A25
:10AFA00001217C4805F030F8044600BF2646002EFB
:10AFB00006D000BF00221146304604F057FC00BF07
:10AFC00000BF754A0121624805F01EF8044600BF23
:10AFD0002646002E06D000BF00221146304604F05F
:10AFE00045FC00BF00BF0BF0A0FC01A871DF0446C8
:10AFF00000BF2646002E06D000BF00221146304674
:10B0000004F034FC00BF00BF002505E001A80130BA
:10B01000405D624948556D1C062DF7D3FEF75EFB77
:10B0200000205F49087005F08DFA05F021FCFFF75C
:10B03000BFFD03E07D20C00002F01AFBFDF70CFB12
:10B040000028F7D005F010FC10F03EFB10F0F4F9EA
:10B050005449098888B210F0B9FD082033490870B6
:10B0600005F070FA05F004FC05F0FEFB0BF0FBFBAD
:10B0700005F068FA05F0FCFB642002F0F9FA11F023
:10B0800009FC00BF0BF0EFFB47480078002801D116
:10B0900000F0F4FD45480078002808D144480078C5
:10B0A000002804D140480078002800D174DF2948E6
:10B0B0000078002801D1FEF7CCFCFFF7BAFEE1E7EB
:10B0C00010B53C480078012811D137480078012894
:10B0D0000AD139480078002806D101203649087085
:10B0E0002A48006804F0E8FF11F098FE10E02E48AE
:10B0F000007801280CD130480078012808D10020C0
:10B100002D49087000222D492048006804F0ABFF4B
:10B110002B480078002860D02A48006801285CD1BC
:10B1200029480078002858D1284851E039200020CB
:10B13000382000202922002036200020A8200020CE
:10B140004D220020881300004C22002050220020B5
:10B1500040E6020048200020D02000201098020085
:10B1600040050040CC20002040000010AC20002012
:10B17000B02000209A200020E82A0020A42B0020E4
:10B18000C79A01003CE60200F9A8010044E602006B
:10B190002F98010048E60200F1AD010022200020B6
:10B1A0009B20002030200020632000202920002048
:10B1B000CE21002062200020D42000203303000094
:10B1C0004E2200205C220020E8200020B420002035
:10B1D0000068401CFA49086004E00020F949087042
:10B1E000F7490860F6480068F749884204D913F027
:10B1F00003F80020F249086010BD10B5F34800784C
:10B20000002805D1F2480078012801D1EF490870E3
:10B21000EC480078002804D00020EC490870EC4984
:10B220000870EA480078030013F0EBF9120A0B1AD1
:10B230002133518799BBC2D4FAF8F7F6F5F4F3F24B
:10B2400063E2E4480078012806D10820DF4908704D
:10B25000642002F00DFA02E00220DC49087054E29A
:10B260000020DD4908800320D84908704DE2DA4803
:10B270000088401CD849088008460088FF212D31ED
:10B28000884205DB0020D44908800420CF4908709B
:10B290003BE2002005E0D149095CD14A1154411C30
:10B2A000C8B20C28F7D30C21CD4811F09DFD002029
:10B2B00004E00021CB4A1154411CC8B23228F8DB0B
:10B2C0000020C54908800520C04908701DE2C24819
:10B2D0000088401CC049088008460088C24988424E
:10B2E00005DB0220B94908700020BB490880BD4831
:10B2F0000078EF2812D1BB48407801280ED1B94818
:10B30000007A03280AD1B748407A022806D10620DD
:10B31000AE4908700020B04908800DE0B1480078BF
:10B32000EF2809D1AF484078012805D10220A7496C
:10B3300008700020A8490880E7E1A7480088401C61
:10B34000A549088008460088FF212D31884205DB89
:10B350000020A149088007209C490870D5E112F01F
:10B3600047FA012808D100209849087012F0DEF849
:10B3700000209749087013E097480088401C9649C0
:10B38000088008460088FF212D31884208DB002014
:10B390009149088006208D49087000208C4908706A
:10B3A000B3E100208C490880092088490870ACE18D
:10B3B00089480088401C8849088008460088FF2189
:10B3C0002D31884205DB0020834908800A207F490F
:10B3D00008709AE1002005E08049095C804A115418
:10B3E000411CC8B20C28F7D30C217D4811F0FCFC9D
:10B3F000002004E000217B4A1154411CC8B23228CD
:10B40000F8DB0020744908800B20704908707CE14B
:10B4100077E138E1EEE0B5E07EE05FE04CE0FFE7A9
:10B420006D480088401C6C490880084600886E49B9
:10B43000884205DB092065490870002066490880BC
:10B4400068480078EF2811D16648407801280DD16E
:10B450006448007A032809D16248407A022805D15D
:10B460005A49087000205C49088024E05D48007853
:10B47000EF2812D15B48407801280ED15948007A54
:10B4800003280AD15748407A002806D10C204F499A
:10B4900008700020504908800DE052480078EF28DD
:10B4A00009D150484078012805D102204749087049
:10B4B00000204949088028E147480088401C464947
:10B4C000088008460088FF212D31884205DB0020D6
:10B4D000414908800D203D49087016E1002005E033
:10B4E0004249095C3E4A1154411C88B20D28F7D3E9
:10B4F0000D213B4811F078FC002004E00021394A7E
:10B500001154411C88B23228F8D3002032490880F7
:10B510000E202E490870F8E02F480088401C2E4964
:10B520000880084600883049884205DB0C202749FE
:10B5300008700020284908802A480078EF2812D196
:10B540002848407801280ED12648007A03280AD1DD
:10B550002448407A002806D10F201C49087000209A
:10B560001D4908800DE01F480078EF2809D11D48CB
:10B570004078012805D10920144908700020164997
:10B580000880C2E0002005E01949095C144A115402
:10B59000411CC8B21128F7D31121114811F024FC25
:10B5A000002004E000210F4A1154411CC8B2322887
:10B5B000F8D3002008490880102004490870A4E04E
:10B5C000B42000204E220020DC050000DC200020FA
:10B5D0004C220020CE210020DE200020E8E70200DF
:10B5E0001B2B0020B4360020204E000018E802007B
:10B5F00081E80200FA480088401CF94908800846A2
:10B600000088F849884205DB0C20F74908700020C3
:10B61000F3490880F5480078EF2833D1F3484078A3
:10B6200001282FD1F148007A072825D1EF48407A28
:10B63000002803D0ED48807A01281DD10020C043A6
:10B64000EB490880E948807A0880E848C07A098890
:10B650004018E749088008460088E649097888428A
:10B6600006DD2A200AF0D0FF0220DF49087009E039
:10B670001120DD49087005E02A200AF0C5FF0220EC
:10B68000D949087041E0DA4800880AF071FADA49CD
:10B69000086008460068D94988422BD005F0E4F8D4
:10B6A000D5480068FF2109040840D34908600846CE
:10B6B000006801210904884208D1D148FF210231E4
:10B6C0000268CB48008807F0BCFA0CE0CA48006862
:10B6D00001214904884206D1C948CA490268C448C0
:10B6E000008807F0AEFA04F02DFF05F0C1F80AF06B
:10B6F00036FD02E02A200AF087FF0220BA490870CE
:10B7000003E00220B849087000BF00BF10BD10B5AB
:10B71000BD480078002842D1BC48007800283ED1BE
:10B72000BB48007800283AD1BA480078002836D1C2
:10B73000B9480078002832D1B8480088002806D0DF
:10B74000012805D0022810D0032821D11AE025E0D5
:10B750000720B0490870AC480078002801D111F0EA
:10B76000BAFE0020AD49088018E00A20A9490870F7
:10B77000A5480078002801D111F0ADFE0020A749AE
:10B7800008800BE00020A3490870A449088005E068
:10B790000020A0490870A149088000BF00BF9D4853
:10B7A0000078030012F02DFF0D080C132543788A52
:10B7B000A6B8F0EEEDECEB00002099490880A6E178
:10B7C0000020974908800220924908709FE1944820
:10B7D0000088401C9249088008460088FF212D31CE
:10B7E000884205DB00208E490880032089490870C3
:10B7F0008DE1002005E08B49095C8B4A1154411C06
:10B80000C8B20C28F7D30C21874811F0EDFA0020BC
:10B8100004E00021754A1154411CC8B23228F8DBFB
:10B8200000207F49088004207A4908706FE17C4835
:10B830000088401C7A490880084600886949884287
:10B8400005DB0520734908700020754908806748AA
:10B850000078EF2812D16548407801280ED163485E
:10B86000007A03280AD16148407A022806D10520CF
:10B870006849087000206A4908800CE05B4800783D
:10B88000EF2808D159484078012804D1614908704F
:10B890000020634908803AE161480088401C604903
:10B8A000088008460088FF212D31884205DB0020F2
:10B8B0005B49088006205749087028E111F098FF7D
:10B8C000012805D100205349087011F02FFE10E027
:10B8D00053480088401C5249088008460088FF21D0
:10B8E0002D31884205DB00204D490880052049495B
:10B8F00008700CE14A480088401C49490880084605
:10B900000088FF212D31884205DB00204449088052
:10B91000082040490870FAE0002005E04349095C2E
:10B92000414A1154411CC8B21028F7D300203E49A7
:10B9300088723F480078C872002406E03A4A811DA8
:10B94000515C09198CB2411CC8B20828F6D30020FA
:10B9500035498873CC731021334811F045FA002023
:10B9600004E00021214A1154411CC8B23228F8DBFE
:10B97000092028490870002029490880C7E0C2E052
:10B980008FE070E05DE0FFE725480088401C244917
:10B990000880084600881349884205DB07201D49B6
:10B9A000087000201E49088010480078EF2847D111
:10B9B0000E484078012843D10C48007A032839D139
:10B9C0000A48407A002803D00848407A012831D13B
:10B9D00001201049087000201149088030E0000063
:10B9E000DE200020204E0000DC200020B4360020A5
:10B9F000E22000206BE70200D8200020FFFF0000BB
:10BA00004C200020010200004D2200204C2200208A
:10BA10004E220020E820002063200020E6200020A5
:10BA2000EA200020E8E702001B2B0020B2E8020019
:10BA3000E420002007203F49087000203E4908808C
:10BA400065E03D480088401C3B4908800846008866
:10BA5000FF212D31884205DB0020374908800B206B
:10BA60003449087053E0002005E03449095C344A49
:10BA70001154411CC8B20C28F7D30C21304811F0E6
:10BA8000B3F9002004E000212E4A1154411CC8B231
:10BA90003228F8DB0020284908800C20254908704E
:10BAA00035E025480088401C234908800846008866
:10BAB0002549884205DB01201E49087000201E49E7
:10BAC000088020480078EF281CD11E4840780128C3
:10BAD00018D11C48007A03280ED11A48407A002851
:10BAE00003D01848407A012806D101201149087076
:10BAF00000201149088005E001200E49087000204F
:10BB00000D49088003E001200A49087000BF00BF0A
:10BB100010BD012181400D4A916070470121814093
:10BB20000A4AD1607047014608480069C840C0070A
:10BB3000C00F7047E8200020EA200020CEE8020075
:10BB40001B2B0020B4360020204E000000050050C2
:10BB500030B50146002000240C606C4C2469E3439E
:10BB600000220DE094006A4D2D5D0124AC401C4084
:10BB7000002C04D0012595400C682C430C60521C0D
:10BB8000052AEFD330BD10B50246052A0FD25F4B10
:10BB90001B69D84393005E4CE45C0123A34003403F
:10BBA000002B01D0012300E000230B7001E00020F6
:10BBB0000870002010BD70B504460D46FCF78CFFE0
:10BBC00070BD10B5044620780221FFF7F4FF10BDC8
:10BBD00001460020704730B503460D461846FFF772
:10BBE000F7FF0446204630BD10B503460020052B64
:10BBF00015D2012A07D1012903D11C460D34E4B224
:10BC000000E000242246002906D0012902D00229A2
:10BC100003D100E002E001E000E000BF00E0072007
:10BC200010BDF8B506460F4600240220304000281B
:10BC300022D0002506E0012211462846FFF7D4FF56
:10BC400004466D1C052D01D2002CF4D0002C05D12A
:10BC50007A0805212F4803F07DFD0446002C02D10F
:10BC600003F0B8FD0446002C05D12B4A00212B48D7
:10BC700004F0CAF9044600BF2046F8BD70B50024A0
:10BC8000002506E0012211462846FFF7ADFF0446D5
:10BC90006D1C052D01D2002CF4D0002C02D103F034
:10BCA00099FD0446204670BD10B503F093FD10BD0C
:10BCB00010B503F0A0FD10BD70B50246002021E0D4
:10BCC0008400134D2C59A400154D641921680124DA
:10BCD00084401440002C01D0032400E000242346BB
:10BCE00003252D040C46AC4321461C0421430524A6
:10BCF000240707252D0264198500054E7559AD00EE
:10BD00006151401C0528DBD3002070BD00050050A8
:10BD100068E602007CE60200C3BB010064E60200A4
:10BD20000007005010B5012200210846FFF75CFF14
:10BD3000044600BF002C03D0072C01D0204610BDC4
:10BD400000BF072202210120FFF74EFF044600BF7B
:10BD5000002C03D0072C01D02046F0E700BF0422BE
:10BD600002210020FFF740FF044600BF002C03D053
:10BD7000072C01D02046E2E700BF0020DFE710B526
:10BD8000012202210020FFF72FFF044600BF002CF4
:10BD900003D0072C01D0204610BD00BF072202218E
:10BDA0000120FFF721FF044600BF002C03D0072C21
:10BDB00001D02046F0E700BF0A2200210846FFF725
:10BDC00013FF044600BF002C03D0072C01D02046EF
:10BDD000E2E700BF0020DFE77CB5044601A90020B0
:10BDE000FFF7D1FE054600BF002D01D028467CBDDF
:10BDF00000BF69460120FFF7C6FE054600BF002DC3
:10BE000001D02846F3E700BF68460078002802D03A
:10BE10000220207008E068460079002802D00B203C
:10BE2000207001E0002020700020E0E710B5032022
:10BE3000FFF742FF044600BF002C03D0062C01D0C0
:10BE4000204610BD00BF0020FBE770B505462888DE
:10BE5000102802D0112832D118E0284800680028A4
:10BE60000ED1FFF75FFF044600BF002C07D0244827
:10BE70000068002803D0204621490968884700BF90
:10BE80001E480068401C1D49086019E01B480068F6
:10BE9000401E1A4908600846006800280ED1FFF7C6
:10BEA0006EFF044600BF002C07D01548006800282C
:10BEB00003D0204612490968884700BF00E000BF50
:10BEC00000BF70BD70B505460C4600260C480560E5
:10BED000002C09D02046FFF77FFF064600BF002E4A
:10BEE00001D0304670BD00BF04480068002802D170
:10BEF000FFF745FF06463046F4E70000F02000203B
:10BF0000EC2000200321094802680A430260084827
:10BF100002680A4302600748804707480047FEE777
:10BF2000FEE7FEE7FEE7FEE7FEE70000240500402F
:10BF300054050040E1BF0100C1800100324833498F
:10BF4000086070473248008CC0B2012812D13048D6
:10BF5000808C0007000F00280CD12D48806AF0214A
:10BF60000840402806D12A48C06A0840002801D16C
:10BF7000012070470020FCE72548008CC0B2012852
:10BF80002CD12348808C0007000F002826D12048A0
:10BF9000806AF0210840002806D11D48C06A084088
:10BFA000002801D1012070471948806AF02108401B
:10BFB000102806D11648C06A0840002801D1012087
:10BFC000F1E71348806AF0210840302806D1104874
:10BFD000C06A0840002801D10120E4E70020E2E720
:10BFE00010B5FFF7C9FF002805D00A480A49486084
:10BFF000C8130A498861FFF7A5FF002802D0012075
:10C000000749886010BD00000024F400F4200020DF
:10C01000C00F00F0DFFF07C000050040006C0040CB
:10C020000006004070B504461D4610881230A84234
:10C0300001D90C2070BD1120168888551088401C2D
:10C0400010801020168888551088401C10800F23FF
:10C0500007E0E05C16888855581E43B21088401CE3
:10C060001080002BF5DA0020E4E730B50446108894
:10C07000C01C984201D90C2030BD022015884855BB
:10C080001088401C10801C20158848551088401CC2
:10C090001080012C06D0022C08D0032C0AD0042CCE
:10C0A00010D10BE00020158848550DE001201588BF
:10C0B000485509E002201588485505E003201588F9
:10C0C000485501E00720D7E700BF1088401C1080CA
:10C0D0000020D1E7FEB505460C46174620880930FA
:10C0E000B84201D90C20FEBD684671DF0646002E1D
:10C0F00001D03046F7E70820218868542088401C8A
:10C1000020801B20218868542088401C20802188A2
:10C110004819062200A9013112F0F7F92088801D84
:10C12000208068460078002802D12188685402E007
:10C130000120218868542088401C20800020D2E7FC
:10C14000FFB583B005460F4614462878012805D16F
:10C150006878002802D1072007B0F0BD2088801C35
:10C160000699884209D82878012808D12088801C9F
:10C17000697841180698814201D90C20ECE72188A2
:10C180000698401A801E86B201962188891CC8191B
:10C1900001A97DDF02900298002801D00298DBE718
:10C1A0002878022806D168468088B04202DC09203F
:10C1B00000900BE0082000902878012805D16878CD
:10C1C000B04202DC6878019000E001966846808801
:10C1D000FE2801D90C20BFE768468088401C2188D2
:10C1E00078542088401C208021880098785420882A
:10C1F000401C208021886846808808182080002004
:10C20000AAE7F8B505460C4617462088001DB84237
:10C2100001D90C20F8BD684679DF0646002E01D012
:10C220003046F7E70320218868542088401C20808E
:10C230001920218868542088401C208020884119BA
:10C240006846008800F001FB21884018208000200B
:10C25000E0E730B504461088C01C984201D90C2094
:10C2600030BD0220158848551088401C10800120E0
:10C27000158848551088401C108015884C5510882A
:10C28000401C10800020EBE730B504461088C01C2D
:10C29000984201D90C2030BD0220158848551088DD
:10C2A000401C10801120158848551088401C1080B3
:10C2B00010880C541088401C10800020EBE730B52B
:10C2C00004461088C01C984201D90C2030BD0220C1
:10C2D000158848551088401C10800A20158848553C
:10C2E0001088401C108015884C551088401C108008
:10C2F0000020EBE7FFB587B006461D46109C0020E6
:10C30000069020880590002749E0B9007068411820
:10C310000A88684682804988C180002202A901A853
:10C3200065DF03900398002802D003980BB0F0BD9E
:10C330006846017A0998814230D10698002801D0D8
:10C34000002000E00220009020886946097A411808
:10C35000009809181198814201DD0C20E6E7069843
:10C3600000280AD12088401C208021880898685421
:10C370002088401C2080012006902088421902A9B4
:10C3800001A865DF03900398002801D00398CDE74A
:10C3900021886846007A0818208000BF7F1C3088FA
:10C3A000B842B2DC069800280ED021880598401CBF
:10C3B000081A80B204900498FF2801DD0C20B5E72C
:10C3C0000498C1B2059829540020AFE7FFB583B0A7
:10C3D00015460D9F0C9E019700960222069B04991C
:10C3E0000398FFF787FF0446002C02D0204607B0D1
:10C3F000F0BD0197009610222946069B0398FFF78F
:10C4000079FF0446002C01D02046F0E70020EEE73B
:10C4100001460888062808DB08881922D2019042C4
:10C4200005DD0888FB4A904201D007207047488804
:10C43000062808DB48881922D201904205DD488889
:10C44000F44A904201D00720F0E70888F14A904270
:10C4500008D04888904205D008884A88904201DD7B
:10C460000720E3E70020E1E7FFB581B006460D466F
:10C4700014462088801D0499884202D90C2005B0FA
:10C48000F0BD3046FFF7C4FF0746002F01D0384605
:10C49000F5E70520218868542088401C2080122060
:10C4A000218868542088401C2080228851193088B7
:10C4B00000F0CBF92188401820802288511970881B
:10C4C00000F0C3F92188401820800020D7E7FFB58D
:10C4D00081B005460E461446A888871C2088801C1B
:10C4E000C1190498814202D90C2005B0F0BDFE2F7D
:10C4F00001D90C20F9E7781C218870542088401C51
:10C500002080FF20218870542088401C20802288B1
:10C510009119288800F099F9218840182080A8886E
:10C5200000280EDDA868002801D10720DDE7AA88D1
:10C5300023889819A96811F0E8FF2088A988401875
:10C5400020800020D1E7FEB507460E461446B86AA3
:10C55000002801D10720FEBD0020019037E0B96A14
:10C560000C22019850430D18A888801C0090009858
:10C57000FE2801D90C20EEE70098401C2188705459
:10C580002088401C20801620218870542088401C60
:10C59000208022889119288800F057F921884018B6
:10C5A0002080A88800280EDDA868002801D1072077
:10C5B000D1E7AA8823889819A96811F0A6FF2088D6
:10C5C000A988401820800198401CC0B201902C20FE
:10C5D000C15D01988142C2DC0020BCE7F7B582B0A2
:10C5E000044616460025378800203080606B0028FE
:10C5F0000CD0616B08783B4632460399FFF744FE46
:10C600000546002D02D0284605B0F0BD206B00285D
:10C610000AD03B463246206B0399FFF703FD0546DF
:10C62000002D01D02846EFE72E20005D00280BD01A
:10C630002E21085D3B4632460399FFF716FD05465D
:10C64000002D01D02846DFE72D20005D002809D00D
:10C650003A4631460398FFF73DFD0546002D01D0CF
:10C660002846D1E7A078002809D03A4631460398F9
:10C67000FFF7C7FD0546002D01D02846C4E7E07846
:10C6800000280BD0E17848B23B4632460399FFF7C9
:10C69000E0FD0546002D01D02846B5E7606800287A
:10C6A0000CD00020616808563B4632460399FFF7DC
:10C6B00006FE0546002D01D02846A5E72089002862
:10C6C0000DDD019700960622022120460830039BCB
:10C6D000FFF77CFE0546002D01D0284694E7208A0E
:10C6E00000280DDD01970096072203212046103017
:10C6F000039BFFF76BFE0546002D01D0284683E71C
:10C70000208B00280DDD019700961522142120466C
:10C710001830039BFFF75AFE0546002D01D028462E
:10C7200072E7206A00280AD03B463246206A039905
:10C73000FFF79AFE0546002D01D0284664E7606A9F
:10C7400000280AD03B463246606A0399FFF7BFFED5
:10C750000546002D01D0284656E72C20005D002814
:10C760000ADD3B46324620460399FFF7ECFE0546BC
:10C77000002D01D0284647E7207800280AD03B4604
:10C78000324620460399FFF7DBFC0546002D01D019
:10C79000284639E7284637E70146C8780422104082
:10C7A000002801D1072070470020FCE70146C87827
:10C7B000002801D0072070470020FCE7F3B593B0B4
:10C7C0000D461F21129111911398002814D013982F
:10C7D000FFF7E2FF0446002C02D0204615B0F0BD62
:10C7E00012AA09A91398FFF7F9FE0446002C01D0FC
:10C7F0002046F3E709AE02E0002600201290002D4B
:10C8000016D02846FFF7D2FF0446002C04D020465D
:10C81000E4E70000FFFF000011AA01A92846FFF786
:10C82000DDFE0446002C01D02046D7E701AF02E030
:10C8300000270020119010A88088C3B210A800899A
:10C84000C1B23A46304672DFC8E702460A70FF209E
:10C85000000210400012487002207047014608791B
:10C86000002802D1087B002801D001207047002059
:10C87000FCE710B50721FE4811F060FE10BD02462E
:10C88000002105E0505C002801D001207047491CC0
:10C890000629F7D30020F9E7F8B504460F461546F8
:10C8A0001E46002C01D0002D01D10E20F8BD002025
:10C8B000F0490870F0480660F049069808602422A4
:10C8C0002946EF4811F021FEFFF7D3FFED48EE496E
:10C8D0000860EE4888603821ED4811F02FFE20787E
:10C8E000EB490870A0788870E078C870607848706C
:10C8F000626920694A6108610846E268A168C2600D
:10C900008160E269A169C2618161606A00281BD00F
:10C91000E048DF494862E0498160606A0088DC499C
:10C92000496A0880606A8088D949496A88800020FD
:10C9300005E0616A8968095CD74A1154401CD449F2
:10C94000496A89888142F4D8A06A002824D0D34952
:10C95000D3488160CE498862D049CD48806A8160E1
:10C96000A06A8088CA49896A8880A06A0088C84904
:10C97000896A0880002005E0A16A8968095CC74AC5
:10C980001154401CC249896A89888142F4D82C20FC
:10C99000015DBF4820300173206A00280BD0C148D8
:10C9A000BB490862206A4088096A4880206A00887A
:10C9B000B749096A08806068002804D0BA48B449B9
:10C9C0004860606848603946B148FFF7F7FE00905C
:10C9D00000986BE730B587B00546A6480570002083
:10C9E0000090684602F017FE0446082C02D1002091
:10C9F000009004E0002C02D0204607B030BD009823
:10CA0000002804D00120A94908700020F5E7FFF7AD
:10CA100030FF9B484078002803D0964800780128D2
:10CA200007D097488078002812D0924800780228D2
:10CA30000ED191480068002807D001209C49087059
:10CA400008208D490968884702E00020984908704D
:10CA50008848007801280CD189484078002805D002
:10CA60008348401CFFF70BFF002802D102208149B8
:10CA700008708048007802280CD18148807800280E
:10CA800005D07B48401CFFF7FAFE002802D10320A6
:10CA9000784908707A48007B002806D175480078EC
:10CAA000032802D10420734908707548007E0028CD
:10CAB00008D170480078042804D100206D4908701E
:10CAC0007C4908706C480068002817D069480078D5
:10CAD000032803D06748007804280FD168480078FD
:10CAE00000280BD074480078002807D10120734932
:10CAF0000870072060490968884702E000206F49F4
:10CB00000870182101A811F019FD00216846017173
:10CB10000020029068460173002004905548007878
:10CB2000012806D0022810D0032821D0042877D16C
:10CB30004EE04F4802900121684601710021C182F8
:10CB4000818201205B49087074E04948029001210C
:10CB5000684601714A48008981B26846C1824848E6
:10CB6000808881B26846818202205249087061E063
:10CB70004348808A81B26846C1824148008A81B2B6
:10CB8000684681824048FFF769FE00281CD03C4877
:10CB90000078002818D048480078002814D10220D6
:10CBA000694608733848049004203949C870002148
:10CBB0003748FFF703FE0446002C01D020461CE74F
:10CBC00005203C49087002E003203A49087031E032
:10CBD0002B48808B81B2684681822948008C81B2C3
:10CBE0006846C1822848FFF739FE00281DD0244836
:10CBF0000078002819D030480078002815D102208C
:10CC0000694608732048049004202149C870002117
:10CC10001F48FFF7D3FD0446002C02D02046ECE667
:10CC200007E006202349087002E00420214908702B
:10CC300000E000BF00BF0F480078002840D06846E1
:10CC4000007E4108490068460176007E0221884343
:10CC5000014668460176007E0421884369460876CD
:10CC600001A873DF0446002C2AD02046C5E6000048
:10CC7000F92000200C2100200421002008210020A0
:10CC8000942F0020C82F0020B82F0020E82F00206C
:10CC90005C2F00200830002014300020403000209D
:10CCA000343000201021002014210020F820002022
:10CCB0000F210020002100200D2100200E21002046
:10CCC00098480068002804D097480078954909687A
:10CCD0008847002091E630B587B004469348047039
:10CCE0006846007E41084900491C68460176007E7E
:10CCF00002218843811C68460176007E0421884316
:10CD0000001D6946087601A873DF0546002D02D094
:10CD1000284607B030BD0020FBE770B504462088E8
:10CD2000102804D0112806D0192869D11AE0A0884B
:10CD30007F49088065E000207E490870A0887C4912
:10CD4000098888420DD10120FFF744FE0546002DD9
:10CD500007D079480068002803D02846764909683A
:10CD600088474EE0A079002849D170480078012812
:10CD700006D0022813D0032820D004283DD12FE06C
:10CD80000220FFF727FE0546002D07D06A480068FD
:10CD9000002803D028466849096888472EE0032008
:10CDA000FFF718FE0546002D07D0634800680028ED
:10CDB00003D028466049096888471FE003205A4984
:10CDC00008700420FFF706FE0546002D07D05A48DC
:10CDD0000068002803D028465749096888470DE0B5
:10CDE0000020514908704F480068002804D00846C8
:10CDF00000784C490968884700E000BF00BF00E0A8
:10CE000000BF00BF70BD70B504460025022C02D0E3
:10CE1000032C18D100E000BF48480078002811D04A
:10CE200000204649087041480078FFF7D3FD0546C9
:10CE3000002D07D040480068002803D028463E490E
:10CE40000968884700E000BF00BF70BD01463C484C
:10CE50000078002801D1082070470878394A1070FE
:10CE6000002005E04A1C135C364A521C1354401C37
:10CE70000628F7DB0020324A107000BFECE710B53F
:10CE8000024631480078002801D1082010BD1079F1
:10CE90002E4B1871107B1873002106E08B009068F0
:10CEA000C0588B002A4CE050491C2848007B88421F
:10CEB000F4D8002106E08B001068C0588B00254C88
:10CEC000E050491C214800798842F4D800201E4BCC
:10CED000187000BFDAE710B51F48007801281FD18D
:10CEE0001448007800281BD110480078002805D08D
:10CEF00074DF0446002C01D0204610BD01200D49EE
:10CF000008700A480078FFF765FD0446002C07D03A
:10CF100009480068002803D0204607490968884767
:10CF20000020EAE704210020002100200C2100203D
:10CF3000162100200D21002008210020F8200020CB
:10CF40000F210020F92000200E210020B82F002002
:10CF5000E82F0020C82F0020942F00200146488889
:10CF6000B74A1288904206DB4888B54A52889042F8
:10CF700001DC012070470020FCE738B50546B148C8
:10CF80000088B14988423BD0B0480078401CAF4986
:10CF90000870AF48007B097888420FDBA849A94890
:10CFA000008875DF0446002C07D0A9488069002856
:10CFB00003D0A74881692046884721E00020A34983
:10CFC0000870A348007C00280FD03B219D480088B2
:10CFD00076DF0446002C07D09D488069002803D0E6
:10CFE0009B4881692046884700BF994840690028CE
:10CFF00006D000200090964841696846884700BFE7
:10D0000038BD70B505461C222946914811F07DFABD
:10D01000002090490870286800280BD00822884812
:10D02000296811F072FA86487ADF0446002C08D08D
:10D03000204670BD82487BDF0446002C01D020468C
:10D04000F7E70020C0437F49088000207F4908702F
:10D05000814A0021814802F0D7FFEAE710B57F48F6
:10D06000006803F029F810BD38B57D48FFF776FF5A
:10D07000002829D17748007800280AD074484069F0
:10D08000002820D0002000907148416968468847F8
:10D0900019E06E480078002802D16D48456801E02B
:10D0A0006B488568002229466C48006802F0DBFF67
:10D0B0000446002C07D066488069002803D06448E5
:10D0C0008169204688470AE061484069002806D007
:10D0D000012000905E4841696846884700BF0020F3
:10D0E0005C49087038BD10B50446A08855490880D1
:10D0F0000822214616315A4811F007FA00205349F8
:10D1000008705348C089002801D1FFF7ADFF10BD5A
:10D1100070B505460020C0434A49088000204B49AD
:10D1200008704E48006802F0C7FF0446002C07D084
:10D1300047488069002803D04548816920468847D0
:10D1400070BD70B50546AC1D20884149C98988422B
:10D1500020D1208B02281DD100BF00BFA17EE27E1E
:10D16000120211430846C107C90F002902D0FFF778
:10D170007BFF0FE03948006802F09EFF0646002E54
:10D1800007D033488069002803D031488169304690
:10D19000884700BF70BD10B504460822A11D304865
:10D1A00011F0B3F9FFF760FF10BD10B504462088F9
:10D1B000102806D0112808D012280ED0502810D1DF
:10D1C00007E02046FFF78FFF0CE02046FFF7A0FFA7
:10D1D00008E02046FFF7B5FF04E02046FFF7DBFF3D
:10D1E00000E000BF00BF10BD38B50446082221464C
:10D1F000134811F08AF912487ADF0546002D1CD138
:10D200001748FFF7ABFE00280BD101201149087029
:10D210000B490C48008875DF054601200B49087052
:10D220000BE00B484069002806D001200090084818
:10D2300041696846884700BF0025284638BD000080
:10D240001821002022210020FFFF000020210020C3
:10D25000603000202C2100207BCF0100A4E60200DA
:10D26000242100208A88828270470022D243828251
:10D27000704770B504460E46B51D2988208A814244
:10D2800013D1288B022810D100BF00BFA97EEA7EEF
:10D29000120211430846C107C90F002902D001201C
:10D2A000A0750FE00020A0750CE02888A1888842B6
:10D2B00008D1A069002805D02A8B29461A312046BA
:10D2C000A369984770BD30B58FB004460D46002065
:10D2D000079000BF6846007F01090901491C6846A4
:10D2E0000177007FF021884310306946087700BF3E
:10D2F00000BF6846407F01090901491C6846417723
:10D30000407FF021884310306946487700BF684667
:10D31000807F06218843811C684681771C2108A8EC
:10D3200011F00CF908A8007810218843411808A8CA
:10D330000170002009900B900C9007A80D90002020
:10D340000E90217868468171C64981800020009046
:10D3500000BF6846007801090901491C6846017050
:10D360000078F021884310306946087000BF00BF84
:10D370006846407801090901491C684641704078B7
:10D38000F021884310306946487000BF68468078B5
:10D3900006218843811C6846817080780821884373
:10D3A00001466846817080781021884301466846AE
:10D3B0008170807841084900491C684681701421B9
:10D3C00002A811F0BBF801A8029068460390012161
:10D3D00001820021418214218182608823460C331E
:10D3E00002AA08A9A2DF0FB030BD30B58FB0044645
:10D3F0000D461C2108A811F0A1F808A80078082102
:10D400008843411808A80170007804218843011D51
:10D4100008A80170002009900B900C900D900E90C0
:10D420002178684681728F4901810020019000BFF8
:10D430006846007901090901491C684601710079B3
:10D44000F021884310306946087100BF00BF68466C
:10D45000407901090901491C684641714079F02170
:10D46000884310306946487100BF684680790621BC
:10D470008843811C68468171807908218843014670
:10D480006846817180791021884301466846817120
:10D49000807941084900491C68468171142103A81C
:10D4A00011F04CF802A8039001A8049001216846ED
:10D4B00081820021C182142101836088231D03AA77
:10D4C00008A9A2DF0FB030BD70B505460C46002D8F
:10D4D00001D0002C00D170BD2088102804D0112864
:10D4E00007D050280FD109E021462846FFF7BAFEA1
:10D4F0000AE021462846FFF7B8FE05E02146284607
:10D50000FFF7B7FE00E000BF00BF00BFE3E770B564
:10D510008EB004460E46544908460DC8C96809AD88
:10D520000DC50C91002C01D0002E02D10E200EB0A2
:10D5300070BD0020C043A0823068A0610020A075AB
:10D54000214609A863DF0546002D01D02846EEE7F5
:10D55000217808A88175434968468186A21C0DA9D7
:10D560000120A0DF0546002D01D02846DFE73E4B15
:10D5700010330FCB089305AB07C3002C01D0002E4E
:10D5800001D10E20D3E70020C043A0823068A06103
:10D590000020A075214605A863DF0546002D01D0B7
:10D5A0002846C4E7217808A881752E4968468186F7
:10D5B00031462046FFF787FE0546002D01D028465C
:10D5C000B5E7294B20330FCB049301AB07C3002CE5
:10D5D00001D0002E01D10E20A9E70020C043A08277
:10D5E0003068A0610020A075214601A863DF0546D0
:10D5F000002D01D028469AE731462046FFF7F5FE78
:10D600000546002D01D0284691E700208FE737B569
:10D6100084B004460D46002C02D10E2007B030BD68
:10D62000A08A1249884202D0A07D002801D108209A
:10D63000F4E76846008B142801DD0720EEE70020A0
:10D640000090019002900390A189684601800395A3
:10D6500006A80290012168468170A08A6946A6DF6B
:10D66000DCE7000043530000A8E60200FFFF0000D3
:10D6700001B505E00098401E00900348FAF72AFD26
:10D6800000980028F6D108BDE703000070B50446F5
:10D690000D462946204600F011F800BFE106C90EEC
:10D6A000012088402149086000BF00BFE106C90E83
:10D6B000012088401E49086000BF70BD10B50028D9
:10D6C00019DA1C4A03071B0F083B9B089B00D25822
:10D6D0008307DC0EFF23A3409A438B071B0E8407AE
:10D6E000E40EA3401A43134B0407240F083CA4087C
:10D6F000A4001A5118E00E4A03231B02D218830813
:10D700009B00D2588307DC0EFF23A3409A438B076C
:10D710001B0E8407E40EA3401A43054B0324240286
:10D720001B198408A4001A5110BD000080E200E01B
:10D7300000E100E01CED00E0F0B5059C55000D4354
:10D740009E00354326023543069E360435430526A2
:10D75000360707273F02F6198700F551F0BD10B5CF
:10D760000522120707231B02D2188300D258032375
:10D770001B049A4305231B07072424021B1984005A
:10D780001A510522120707231B02D2188300D25810
:10D790000B041A4305231B07072424021B198400CA
:10D7A0001A5110BD0146FE484056002805DBFC48D2
:10D7B0004056042801DA012070470020FCE7F7B545
:10D7C00085B00B460020C0430490002A01D0002001
:10D7D00000E004200390002A01D0042000E009208A
:10D7E000029003991FE08800ED4C243C2058401C17
:10D7F000002817D10846059C0093019246B2E84DD7
:10D800002E558500E64E243E009B7351019A002A56
:10D8100004D166B2051FE24F20377E5500BF48B2E3
:10D82000049003E0491C02988142DCD300BF0498B5
:10D8300008B0F0BD0021C9438200D94B243B995068
:10D84000042804DB0B46011FD54A2032535470478D
:10D8500010B5D3481C30407A002801D0082010BDF4
:10D86000002404E0204600F0B9FB601CC4B2202C68
:10D87000F8DB002404E02046FFF7DCFF601CC4B2A4
:10D88000092CF8DB03210620FFF700FF0120C00769
:10D8900000F060FB0121C2481C3041720020DEE72D
:10D8A000BF481C30407A002801D00120704700207A
:10D8B000FCE770B50546284600F06DFB002804D053
:10D8C00000212846FFF74BFF1EE02846FFF76AFFBE
:10D8D000002819D0284600F086FB04462046B149AE
:10D8E0005122120189188200895849084900AD4A1D
:10D8F00051231B01D2188300D15000BF0120A0404A
:10D90000A949886000BF00BF70BD70B504462046BD
:10D91000FFF7CFFF2046FFF745FF002805D0204640
:10D9200000F061FB054600F018FB204600F01DFBEF
:10D93000204600F058FBC5B22846FFF77BFF204683
:10D9400000F04CFB70BD70B504462046FFF72AFF7F
:10D9500000280CD0204600F046FBC5B22846FFF751
:10D9600069FF204600F03FFB054600F0F6FA20462E
:10D9700000F034FB204600F0F8FA70BD10B500242A
:10D9800017E0204686490956891C002901D101214A
:10D9900000E00021002903D02046FFF7D4FF07E074
:10D9A000204600F002FB002802D02046FFF7ADFF22
:10D9B000641C202CE5D3002179481C30417210BD35
:10D9C000FEB504460E4600200290204674490956D2
:10D9D000491C002901D0012100E00021002902D0CA
:10D9E000082002905DE0B07800283AD001220021A2
:10D9F0002046FFF7E4FE0546681C00282ED0377845
:10DA0000727801926748512109014018A9004058D5
:10DA1000664908406349512212018918AA008850BA
:10DA20006048512109014018A900415820021F22D5
:10DA3000120210403A0403231B041A401043019AB7
:10DA4000120501231B051A4010430143554851227A
:10DA500012018018AA00815000BF01E0042002904A
:10DA600006E000BF0121C9434D48015500BF00BF7A
:10DA70000298002815D17078012803D1204600F0C3
:10DA800080FA02E0204600F081FA00BF00200090FA
:10DA900003460122114601902046FFF74DFE00BFCC
:10DAA00000BF0298FEBD10B50446204600F069FA9A
:10DAB00010BD10B50446204600F068FA10BD10B540
:10DAC000014601248C402246394C6468CC40E3076F
:10DAD000DB0F002B02D1364CA26001E0344CE26037
